:020000040800F2
:10000000B00200208D010008910100089301000852
:100010009501000897010008990100080000000000
:100020000000000000000000000000009B0100082C
:100030009D010008000000009F010008A1010008C8
:10004000A3010008A3010008A3010008790C00081F
:10005000A3010008A3010008A3010008A3010008F0
:10006000A3010008A3010008A3010008A3010008E0
:10007000A3010008A3010008A3010008A3010008D0
:10008000A3010008A3010008A3010008A3010008C0
:10009000A3010008A3010008A3010008A3010008B0
:1000A000A3010008A3010008A3010008A3010008A0
:1000B000A3010008A3010008A3010008A301000890
:1000C000A3010008A3010008A3010008A301000880
:1000D000A3010008A3010008A3010008A301000870
:1000E000A3010008A3010008A301000800F002F822
:1000F00000F03AF80AA090E8000C82448344AAF188
:100100000107DA4501D100F02FF8AFF2090EBAE885
:100110000F0013F0010F18BFFB1A43F0010318473B
:100120005C1600007C160000103A24BF78C878C125
:10013000FAD8520724BF30C830C144BF04680C60ED
:10014000704700000023002400250026103A28BF35
:1001500078C1FBD8520728BF30C148BF0B60704739
:100160001FB51FBD10B510BD00F0E9FF1146FFF728
:10017000F7FF00F025F801F007F803B4FFF7F2FFEE
:1001800003BC00F065FF000030BF000008480047D6
:10019000FEE7FEE7FEE7FEE7FEE7FEE7FEE7FEE737
:1001A000FEE7FEE703480449024A044B704700009B
:1001B000ED000008B0000020B0020020B0000020D8
:1001C0000024062000F0E9FE482000F07BFD00F04E
:1001D00009FA00207849086000F0F2F800F085FC88
:1001E000E8E000F006F90446744800780A2190FB24
:1001F000F1F0C5B22946002000F040FA012000F0DD
:100200007DFD6E4800780A2190FBF1F201FB12009F
:10021000C5B22946012000F031FA012000F06EFD40
:100220000A21022000F02AFA012000F067FD63484D
:1002300040780A2190FBF1F0C5B22946032000F076
:100240001DFA012000F05AFD5C4840780A2190FB1D
:10025000F1F201FB1200C5B22946042000F00EFAAB
:10026000012000F04BFD0A21052000F007FA0120D3
:1002700000F044FD514880780A2190FBF1F0C5B2AE
:100280002946062000F0FAF9012000F037FD4B481E
:1002900080780A2190FBF1F201FB1200C5B22946D9
:1002A000072000F0EBF9012000F028FD012C97D188
:1002B0007CE0424880884FF47A7190FBF1F0C5B23F
:1002C0002946002000F0DAF9012000F017FD3B4834
:1002D00080884FF47A7190FBF1F201FB12006421E7
:1002E00090FBF1F0C5B22946012000F0C7F90120CA
:1002F00000F004FD31488088642190FBF1F201FB9D
:1003000012000A2190FBF1F0C5B22946022000F04C
:10031000B5F9012000F0F2FC284880880A2190FB02
:10032000F1F201FB1200C5B22946032000F0A6F944
:10033000012000F0E3FC214880790A2190FBF1F0D4
:10034000C5B22946042000F099F9012000F0D6FC3E
:100350001A4880790A2190FBF1F201FB1200C5B224
:100360002946052000F08AF9012000F0C7FC134857
:10037000C0790A2190FBF1F0C5B22946062000F0B1
:100380007DF9012000F0BAFC0C48C0790A2190FBED
:10039000F1F201FB1200C5B22946072000F06EF908
:1003A000012000F0ABFC00F024F80446012C80D0C2
:1003B000002CFCD015E700008C8121424000002079
:1003C0008248806940F01000804988618048006858
:1003D0006FF30B007E4908600846006840F688010C
:1003E00008437B4908600846C06840F00700C860C1
:1003F000704710B57748007808B37748006838B17F
:100400007548001F006818B1734808380068B0B913
:100410000A2000F073FC00206E4908706E480068E6
:1004200008B9012010BD6C48001F006808B90220FF
:10043000F8E769480838006888B90320F2E7664899
:10044000006801280BD16448001F0068012806D10C
:10045000614808380068012801D15E490870002011
:10046000E0E75A48806940F01000584988615848D0
:10047000006820F00F00564908605448806940F435
:100480000070524988610846C06840F40070C86036
:100490000846C06820F40070C8600846406820F430
:1004A000404048600846406840F4004048604B487F
:1004B00000684B49084049490860084600680860E0
:1004C0000846006820F480700860081D006820F06D
:1004D0000200091D08600846006820F460200860DA
:1004E0000846006840F4602008600846006840F450
:1004F000801008600846006820F4006008603748F3
:100500002830006820F4700034492831086008461B
:1005100000680020086031480830006820F00F00B3
:100520002E49083108600846006840F0070008605E
:10053000081F006840F00100091F086008460068B5
:1005400040F00800086000BF2448001D006800F06B
:1005500008000028F8D12148001D006840F0040080
:100560001E49091D086000BF1C48001D006800F0FE
:1005700004000028F8D17047014618483030006860
:1005800020F01F00154A3032106010460068084302
:1005900010601248001D006840F480000F4A121DD0
:1005A000106000BF0D48001F006800F00200002826
:1005B000F8D00A484830006880B2704702461146B9
:1005C000491201F007010846704700000010024080
:1005D00000100140240000200801224204240140B0
:1005E000FFFFF0004948806940F0010047498861F9
:1005F0000846806940F0080088610846806940F03C
:10060000400088614248406840F0007040494860BE
:10061000404800686FF30F003E49086008460068D4
:1006200043F2333108433B4908603A480C300068D4
:1006300040F0FF0037490C3108603748006800205F
:10064000354908600846006840F033300860324899
:100650000830006840F47F402F4908310860704737
:100660002D490831096821F47F412B4A0832116075
:100670001146096841EA00211160704730B5034610
:100680000C46184603EBD0714910A3EB4101234AF5
:100690001160194603EBD172501000EBD07252106A
:1006A000A0EB42021E4DC5F884211846D91703EB72
:1006B00091718910194A083211601A49085DFFF7D3
:1006C000CFFF30BD30B503460C46184603EBD07162
:1006D0004910A3EB4101114A1160194603EBD17295
:1006E000501000EBD0725210A0EB42020C4DC5F836
:1006F00084211846D91703EB91718910074A0832F3
:1007000011600949085DFFF7ABFF30BD00100240E2
:1007100000000140000C014004180140808121428A
:10072000008021422500002030000020F0B5034663
:100730000C461546642093FBF0F0C6B2642093FB90
:10074000F0F700FB1730C1B2132E02DD01F1640097
:10075000C1B20846CF1701EB977701EBA707BAB2F2
:10076000072092FBF0F700FB172082B25719601E9A
:10077000DFF864C41CF80000384482B2CF1701EBE4
:100780009777BF10A1EB87071FB9032C01DA501E22
:1007900082B2072092FBF0F700FB1720C0B2F0BD39
:1007A0000146CA1701EB92729210A1EB820292B934
:1007B000642091FBF0F200FB121050B94FF4C870A6
:1007C00091FBF0F200FB121008B9012070470020E5
:1007D000FCE70120FAE70020F8E770B500260024C6
:1007E0000025FE4806883604001D00880644FC48A3
:1007F000B6FBF0F4FB480088A0423AD0F9490C80DF
:1008000040F2B2750EE02846FFF7CAFF30B1B4F5EA
:10081000B77F02D3A4F5B77402E006E0A4F26D142A
:10082000681C85B2B4F5B67FEDD800BFEE48858070
:10083000002516E0EC498888FFF7B2FF30B1012DA2
:1008400004D11D2C01D91D3C09E00CE0E748405DB6
:10085000A04203D8E548405D241A00E003E0681C8C
:1008600085B21C2CE6D200BF681CDF498871601C71
:10087000C871DB48B6FBF0F100FB11644FF4616016
:10088000B4FBF0F0D84908704FF46160B4FBF0F1AC
:1008900000FB11403C21B0FBF1F0D34948704FF40C
:1008A0006160B4FBF0F100FB11403C21B0FBF1F2C0
:1008B00001FB1200CC4988700B46DA799979988847
:1008C000FFF734FFC8490872002070BD2DE9F047DA
:1008D00005460E4617469846DDE9089A002340F281
:1008E000B270854203DB40F63300854202DD012011
:1008F000BDE8F08740F2B2740AE02046FFF750FFEF
:1009000010B1BB48034401E0BA480344601C84B200
:10091000AC42F2DB701EC6B2002410E0B348005DAA
:1009200040F2A321484303EBC0132846FFF738FFEA
:1009300018B1012C01D1AA480344601C84B2B4420E
:10094000ECDB781E40F2A321484303EBC013C8EB55
:100950004810C0EB082003EB0013C9EB091003EBB0
:1009600080035344A448C06940F08050A249C86144
:100970000846C06940F00060C861A048006840F4C3
:1009800080709E49086095481438008840F0100037
:100990009249143908809149091D0B80180C091FD0
:1009A00008808E481438008820F010008B491439D4
:1009B000088000BF89481438008800F02000002813
:1009C000F8D0002094E770B50346002409E013F83E
:1009D000015B11F8016BB54201D0002070BD601CB5
:1009E000C4B29442F3DB0120F8E72DE9FE4700246E
:1009F00006E083480068005D02A90855601CC4B287
:100A0000032CF6DB00240BE004EB44017D4A88183C
:100A1000032202A9FFF7D7FF00B103E0601CC4B2B4
:100A20000C2CF1DB00BF601CC6B275480068007971
:100A3000202805D17248006840793038C5B20BE0F3
:100A40006F48006841796E480068007930380A22A2
:100A500002FB00103038C5B269480068C0793038F0
:100A60004FF47A71484366490968097A303964223B
:100A700002FB010162480068407A30380A2202FB1A
:100A800000105F490968897A0844303887B25E48A7
:100A9000006841785C4800680078303802FB00103C
:100AA000303800F0FF0A584800680179564800685D
:100AB000C078303802FB0010303800F0FF0952488F
:100AC0000068C179504800688079303802FB001016
:100AD000303800F0FF0853462A4631463846CDE903
:100AE0000098FFF7F3FEBDE8FE8710B500244748E5
:100AF000008845F2500188426CD03F48C06940F000
:100B000080503D49C8610846C06940F00060C86136
:100B10003A48006840F48070384908603648006AF6
:100B200040F48030344908620846006A20F480307E
:100B300008620846006A40F00100086204E0601C98
:100B4000C4B20A2000F0DAF82B48006A00F0020074
:100B500008B9FA2CF3DBFA2C01DB012010BD264882
:100B6000006A40F48070244908620846006A40F434
:100B70000040086200BF19481438008800F02000C7
:100B80000028F8D000BF15481438008800F008008D
:100B90000028F8D011481838008840F001000F49AB
:100BA0001839088000BF0D481438008800F0200074
:100BB0000028F8D009481438008840F01000074990
:100BC000143908800020091D088047F6FF70091DB0
:100BD00008801DE030E00000E21600081828004000
:100BE000805101003A00002040000020EE1600086D
:100BF0000085E2018033E1010010024000700040F6
:100C000000000020FA16000804000020046C0040D8
:100C1000FFF7EBFE2948008820F0100027490880E4
:100C200000BF2648008800F020000028F9D045F2D7
:100C300050002349088015E000BF2048008800F0DC
:100C400008000028F9D01D48001F008840F001006E
:100C50001A49091F088000BF1848008800F02000CA
:100C60000028F9D0022303220021084600F09AF858
:100C7000FFF7B3FD002071E700B51048008800F0D1
:100C8000010008B1FFF7A9FD0C48008800F0020040
:100C900028B10A48008820F0020008490880074867
:100CA000008840F6FA7108400449088000BF0348F4
:100CB000008800F020000028F9D000BD0428004082
:100CC000046C00404FF0E021096921F004014FF06D
:100CD000E0221161C21700EB5272C2F3C702234B2C
:100CE0001A701946097801EB4102C2EBC1114FF6A7
:100CF000FF7202EAC1011E4A1180704701461C4A78
:100D000012884A434FF0E0235A6100229A6101227F
:100D10001A6100BF4FF0E022106900F001021AB121
:100D200000F48032002AF5D000224FF0E0231A614F
:100D30009A61704701460D4A12784A434FF0E0230A
:100D40005A6100229A6101221A6100BF4FF0E0222D
:100D5000106900F001021AB100F48032002AF5D0C7
:100D600000224FF0E0231A619A6170473C00002096
:100D70003E000020AA4A0A400243AA4B1A6070476C
:100D80000146072323EA01021202A64B1B1D186825
:100D90004FF6FF031840A44B18431043A14B1B1DF3
:100DA000186070472DE9F0478046894614461D4675
:100DB0002046E11704EB9171C1F3870AE11704EBB8
:100DC00091718910A4EB8101CFB2042000EBC70020
:100DD000C7B22846FFF7D4FFC5F1040008FA00F6B1
:100DE0000F20284100EA0900064306F00F06202CD8
:100DF00009DA8E4801680120A04001434FF0E0204D
:100E0000C0F800110BE08948001D0068A4F1200122
:100E100001228A4010434FF0E021C1F804018448C8
:100E200050F82A0006FA07F10843814941F82A00E0
:100E3000BDE8F08770B504460B46CE1701EB9676F9
:100E4000C6F38700CE1701EB9676B610A1EB8606A7
:100E5000B606350E774B9B6943F00103754EB361BF
:100E60004FEAB63353F820300F26AE40B343724EEC
:100E700046F82030334653F8203004FA05F61E4376
:100E80006D4B43F820606D4B1B6801268E40334349
:100E90006A4E336002F0010343B1684B0C331B68A8
:100EA00001268E403343654E0C36336002F0020358
:100EB00043B1624B08331E6801238B401E435F4BD6
:100EC00008331E6070BD00B500205A490861C86033
:100ED0001420486100208861C8610846006840F01D
:100EE000010008600846406855490840514948607B
:100EF00008460068534908404E49086008460068A3
:100F000020F4802008600846406820F4FE00486015
:100F10000020886000214FF00060FFF72BFF00BD2C
:100F200010B540480830006840F004003D490831E1
:100F300008604048C06940F080503E49C86142485E
:100F4000406840F48070404948600846006840F0BE
:100F5000040008600846006840F002000860FFF7DF
:100F600013F910BD3048001D2E49091D0860704757
:100F7000014649062F4A926942F001022D4B9A61BF
:100F80002D4A083A526822F0E0622B4B083B5A6027
:100F90001A4652680A435A60704730B50446002525
:100FA000FFF791FF2348006840F480302149086032
:100FB00000BF20480068400C0028FAD04FF4806041
:100FC0001C494860A01EC4B20846406840EA8440FC
:100FD00048600846406840F4803048601B4800681C
:100FE00040F03200194908601248006840F08070F3
:100FF0001049086000BF0F480068400E0028FAD072
:101000000C48406840F002000A49486005E0094881
:101010004068C0F3870505F00305022DF7D130BD08
:1010200080FFFF1F08ED00E00000FA0500E100E08E
:1010300000E400E00010024008000140000401400C
:101040000000FFF8FFFFF6FE0070004000200240A5
:10105000014600BF704700BF324A128802F04002CA
:10106000002AF9D0C2B22F4B1B1D1A8070472DE900
:10107000F05F05460E46300100F0D4F981462A495A
:1010800005FB01F000F0CEF98246494600F0E8F891
:101090000746384600F0A6F984B2204600F0C2F9AF
:1010A0008346394600F09EFA82464FF0834100F0B5
:1010B000CDF9814600F096F980464FF6FF7000EAC0
:1010C000041404EB080084B21848806940F004005E
:1010D000164988610846806940F480408861144858
:1010E000006820F47F60124908600846006840F4F8
:1010F0000B6008600D48C06840F480400B49C86030
:101100000846C06820F48040C86006480830048063
:10111000001D008842F20C01084302490C3108808E
:10112000BDE8F09F0038014040420F00001002402F
:101130000408014070477047704770477047754614
:1011400000F028F8AE4605006946534620F0070037
:10115000854618B020B5FFF725F8BDE820404FF0D0
:1011600000064FF000074FF000084FF0000B21F091
:101170000701AC46ACE8C009ACE8C009ACE8C0095E
:10118000ACE8C0098D4670470446AFF300802046A6
:10119000FEF7F3FF004870474C00002090EA010F73
:1011A00048BF81F0004100F12E82421A3CBF801AF4
:1011B00089184FEAD0524FF07F4C1CEA410FA2EB46
:1011C000D15318BF9CEA026F00F03B804FF0004CF7
:1011D0004CEA00204CEA012121FA03FC10EB0C0C34
:1011E0001ED202F1FF325FEA1C2040EBC25038BF32
:1011F00070471CF07F0F4FEA400C18BFBCF17F4FC7
:1012000038BF7047C3F12003994008BF20F00100A8
:10121000BCF17F4F38BF7047A0F1C04000F0DDB98E
:101220004FEA3C00000A40EBC25028BF1CF0FF0F01
:101230004FEA400CE6D018BFBCF17F4F38BF704773
:10124000EAE79CEA026F05D010EA5C0F08BF00F0E5
:101250000040704710B500F07AF900BF64FBBE3E55
:101260004FF47F0C1CEAD0121EBF1CEAD11392EA85
:101270000C0F93EA0C0F00F0858090EA010F48BF35
:1012800042F4807240F4000C41F400002CF07F41E5
:1012900020F07F4000B58142A2EB03020FF2081C50
:1012A000ACEB504EC0F100009EF800E04FEA4E0E4D
:1012B00000FB0EFC38BF49004FEA2C1C02F5FA0275
:1012C0000CFB0EF34FEACE1E4FEA112C4FEAC12160
:1012D0000EEB635E42EB22420EFB0CFC4FEA1C530A
:1012E00000FB03114FEA112C4FEA01310EFB0CFCFD
:1012F0004FEADC4C00FB0C11C14228BF09184CEB33
:1013000003335DF804EB10EB410143EBC250B2F53F
:101310007C0F38BF704729D512F0F00F1CBF00F1C9
:10132000C04000F00040704700818283848586873A
:1013300088898B8C8D8E8F919293959697999A9C94
:101340009D9FA0A2A3A5A7A8AAACAEB0B2B3B5B703
:10135000B9BCBEC0C2C5C7C9CCCED1D4D7D9DCDFD9
:10136000E2E6E9ECF0F3F7FAFE0000004FEA400C89
:101370000CF1807CBCF17E4F28BF7047B0F1C040BB
:1013800000F02BB990EA010F0CEAD11348BF42F4E8
:101390008072624538BF634507D213F47F0F16D0C1
:1013A00080EA010000F00040704710B500F0CFF86F
:1013B000097EFC3E00F005B880EA010000F0004024
:1013C000704780EA010000F0004000F006B912F416
:1013D0007F0F04BF0248704780EA010000F0FDB8AB
:1013E0000000C07FC10DD1F19E0206DB4FEA002351
:1013F00043F0004323FA02F07047004207D54FEA5A
:101400004001B1F1FE4F02D24FF00000704710B51D
:1014100000F09DF849922480002070476FEA200078
:1014200070470000B0FA80F310FA03F2C3F19D0395
:101430000AD0D90501EB1220530638BF704700F1DE
:10144000010008BF20F00100704700004FF47F0C3E
:101450001CEAD0121EBF1CEAD11392EA0C0F93EAC9
:101460000C0F00F0478090EA010F48BF42F48072F1
:101470004FF0004C4CEA00204CEA012102EB030241
:10148000A0FB0113A2F50002002918BF43F00103DD
:101490005B0028BF4FEA330342EB22425FEA132C82
:1014A0004CEBC2502EBFBCEB436FB2F57C0F7047C4
:1014B0004FEA036CBCF1004F08BF20F00100B2F509
:1014C0007C0F38BF70470BD582F0FF0212F5803FCA
:1014D000C8BF704700F1C040D8BF00F0004070475F
:1014E00000F5000C5FEA4C0C48BF7047B0F1C040FB
:1014F00000F073B890EA010F0CEAD11348BF42F430
:101500008072624538BF634504D280EA010000F072
:101510000040704710B500F01AF800BF8900013E86
:1015200000F007B800F009B85FEA410C5FEA1C6CF4
:1015300008D080EA010000F050B85FEA400C5FEA92
:101540001C6CF6D14FF00040A0F5800070470EF102
:10155000020E2EF0030E5EF8044B244204D44FEA30
:101560004102B2F17F4F11D84FEA4003B3F17F4FF0
:101570000CD80ED14FEAD07CB2F17F4F0CEB4C0C63
:101580000CF1020C08BF4CEBD17C04E04FF0080CCE
:1015900001E04FEAD17C0CEB4C0324FA03F404F095
:1015A0000704B4F1040C06D20EEB840CBDE8104025
:1015B0004CF0010C6047DFE80CF0070802024FF026
:1015C0000040A0F5800010BD0846420018BFD2F1CF
:1015D000807288BF00F0004010BDFF2141EAD0506A
:1015E000C005704780F0004090EA010F7FF5DDAD47
:1015F00081F0004100F007B890EA010F48BF81F088
:1016000000413FF5D2AD421A04D882F00042A0EB6F
:10161000020011444FEAD0524FF07F4C1CEA410FB8
:10162000A2EBD15318BF9CEA026F4AD04FF0004C96
:101630004CEA00204CEA012121FA03FCB0EB0C0C2F
:101640000FD412F0FE0F36D05FEA4C001DD5001209
:1016500040EBC25038BF70471CF03F0F18BF7047B7
:101660000BE0A2F101025FEA1C2040EBC25038BF40
:1016700070471CF07F0F18BF7047C3F120039940DB
:1016800014BF401E20F00100704780084FEA12236B
:1016900008BF7047B0FA80FCA2EB0C02CCF1280C1A
:1016A00060FA0CF093EA122F04BF00EBC2507047AF
:1016B0004FEAC3707047130A5FEADC1008BF704737
:1016C000F6E79CEA026F04D010EA5C0F08BF002026
:1016D000704710B5FFF73BFF40DFF63E81F000405A
:1016E00070470003030601040602050003051F1CE2
:1016F0001F1E1F1E1F1F1E1F1E1F4A616E46656292
:101700004D61724170724D61794A756E4A756C41D6
:1017100075675365704F63744E6F76446563000060
:1017200031353A34373A3030000000004A756C20C9
:10173000203620323031350046726964617900000C
:101740004D6F6E646179000053756E6461790000BD
:101750005361747572646179000000005765646EAE
:101760006573646179000000547565736461790084
:101770005468757273646179000000009C1700085A
:10178000000000204000000028010008DC170008CD
:101790004000002070020000440100082C170008DF
:1017A00020170008481700084017000868170008AD
:1017B0005C17000870170008381700085017000859
:1017C000013F065B4F666D7D077F6F40BF86DBCFB5
:0C17D000E6EDFD87FFEF000000000000C8
:04000005080000ED02
:00000001FF
