:020000040800F2
:100000006002002005010008090100080B0100083A
:100010000D0100080F010008110100080000000098
:1000200000000000000000000000000013010008B4
:100030001501000800000000170100081901000860
:100040008B0900081B0100081B0100081B010008A8
:100050001B0100081B010008E50700080B08000849
:10006000370800081B0100081B0100081B010008DD
:100070001B0100081B0100081B0100081B010008F0
:100080001B0100081B0100081B0100081B010008E0
:100090001B0100081B0100081B0100081B010008D0
:1000A0001B0100081B0100081B0100081B010008C0
:1000B0001B0100081B0100081B0100081B010008B0
:1000C0001B0100081B0100081B0100081B010008A0
:1000D0001B0100080B0500081B0100081B0100089C
:1000E0001B0100081B0100081B010008DFF80CD0F1
:1000F00000F08AFD0048004721010008600200204E
:1001000030BF000005480047FEE7FEE7FEE7FEE7D8
:10011000FEE7FEE7FEE7FEE7FEE7FEE7ED0000088C
:10012000092000F088F9482000F01AF84FF4165121
:10013000482000F025FA00F09BFA012007490860EA
:100140004FF4FA7000F028F803225F217F2000F0BE
:10015000DCFB02E0002001490860FBE7A00123422C
:100160004FF0E021096921F004014FF0E022116114
:10017000C21700EB5272C2F3C702234B1A70194622
:10018000097801EB4102C2EBC1114FF6FF7202EA9E
:10019000C1011E4A1180704701461C4A12884A4319
:1001A0004FF0E0235A6100229A6101221A6100BFD8
:1001B0004FF0E022106900F001021AB100F4803221
:1001C000002AF5D000224FF0E0231A619A617047AF
:1001D00001460D4A12784A434FF0E0235A6100224B
:1001E0009A6101221A6100BF4FF0E022106900F00D
:1001F00001021AB100F48032002AF5D000224FF03B
:10020000E0231A619A61704700000020020000207C
:10021000AA4A0A400243AA4B1A60704701460723C4
:1002200023EA01021202A64B1B1D18684FF6FF03BA
:100230001840A44B18431043A14B1B1D1860704776
:100240002DE9F0478046894614461D462046E117B1
:1002500004EB9171C1F3870AE11704EB91718910E6
:10026000A4EB8101CFB2042000EBC700C7B228463F
:10027000FFF7D4FFC5F1040008FA00F60F2028416B
:1002800000EA0900064306F00F06202C09DA8E4822
:1002900001680120A04001434FF0E020C0F80011A8
:1002A0000BE08948001D0068A4F1200101228A406A
:1002B00010434FF0E021C1F80401844850F82A00AF
:1002C00006FA07F10843814941F82A00BDE8F087A2
:1002D00070B504460B46CE1701EB9676C6F3870041
:1002E000CE1701EB9676B610A1EB8606B606350E54
:1002F000774B9B6943F00103754EB3614FEAB63308
:1003000053F820300F26AE40B343724E46F82030EB
:10031000334653F8203004FA05F61E436D4B43F87C
:1003200020606D4B1B6801268E4033436A4E33605C
:1003300002F0010343B1684B0C331B6801268E4069
:100340003343654E0C36336002F0020343B1624B17
:1003500008331E6801238B401E435F4B08331E6029
:1003600070BD00B500205A490861C860142048617A
:1003700000208861C8610846006840F001000860FC
:100380000846406855490840514948600846006899
:10039000534908404E4908600846006820F4802010
:1003A00008600846406820F4FE004860002088602D
:1003B00000214FF00060FFF72BFF00BD10B5404853
:1003C0000830006840F004003D49083108604048AA
:1003D000C06940F080503E49C8614248406840F4DE
:1003E0008070404948600846006840F0040008609A
:1003F0000846006840F002000860FFF781FE10BD6B
:100400003048001D2E49091D086070470146490605
:100410002F4A926942F001022D4B9A612D4A083A07
:10042000526822F0E0622B4B083B5A601A46526831
:100430000A435A60704730B504460025FFF791FF24
:100440002348006840F480302149086000BF2048FC
:100450000068400C0028FAD04FF480601C494860C6
:10046000A01EC4B20846406840EA8440486008467E
:10047000406840F4803048601B48006840F032001B
:10048000194908601248006840F0807010490860FF
:1004900000BF0F480068400E0028FAD00C484068A2
:1004A00040F002000A49486005E009484068C0F38E
:1004B000870505F00305022DF7D130BD80FFFF1F32
:1004C00008ED00E00000FA0500E100E000E400E0D3
:1004D0000010024008000140000401400000FFF845
:1004E000FFFFF6FE0070004000200240014600BF02
:1004F000704700BF584A128802F04002002AF9D023
:10050000C2B2554B1B1D1A8070475349098801F030
:10051000200111B35049091D0988C8B24F49097813
:1005200001F08001C9B94D49097801F0400161B17C
:100530000A2803D00021494A117020E04749097870
:1005400041F08001454A117019E00D2806D1434958
:10055000097841F04001414A117010E03F490978A3
:1005600001F03F013E4A50543C490978491C3B4A3E
:100570001170114609783F2901DD00211170704783
:100580002DE9F05F05460E46300100F0EDFA814698
:10059000344905FB01F000F0E7FA8246494600F0D5
:1005A000A5FA0746384600F0E4FA84B2204600F087
:1005B000DBFA8346394600F064FA82464FF0834105
:1005C00000F062FA814600F0D4FA80464FF6FF70E0
:1005D00000EA041404EB080084B22348806940F068
:1005E0000400214988610846806940F480408861A0
:1005F0001E48006820F47F601C49086008460068B7
:1006000040F40B6008601848C06840F48040164908
:10061000C8600846C06820F48040C8600E480830B2
:100620000480001D008842F20C0108430A490C3185
:1006300008800846008840F48070088008460088DA
:1006400040F0200008800223252203210846FFF7FE
:10065000F7FDBDE8F09F00000038014008000020D1
:100660002000002040420F0000100240040801401A
:100670005248806940F0010050498861084680690D
:1006800040F0080088610846806940F040008861B9
:100690004B48406840F0007049494860494800684C
:1006A00020F47040474908600846006840F4405014
:1006B000086044480C30006840F0080041490C31A3
:1006C00008604148006800203F490860084600680B
:1006D00040F0333008603C48083000683A4908313F
:1006E0000860704700F00101384A1160C0F3400112
:1006F000374AC2F8A411C0F38001344A08321160AD
:10070000C0F3C001121D1160C0F30011121D116071
:10071000C0F34011121D1160C0F38011121D116051
:10072000C0F3C0112A4AC2F8BC11704730B5034665
:100730000C46184603EBD0714910A3EB4101254A42
:100740001160194603EBD172501000EBD0725210B9
:10075000A0EB4202204DC5F884211846D91703EBBF
:10076000917189101B4A083211601C49085DFFF71E
:10077000B9FF30BD30B503460C46184603EBD071C7
:100780004910A3EB4101134A1160194603EBD172E2
:10079000501000EBD0725210A0EB42020E4DC5F883
:1007A00084211846D91703EB91718910094A083240
:1007B00011600B49085DFFF795FF30BD0010024046
:1007C00000000140000C014004180140A001234238
:1007D0000000234280812142008021420900002044
:1007E0001300002010B50A20FFF7D6FC3848006837
:1007F00038B93848006808B9012000E000203549C0
:10080000086001203449086010BD10B50A20FFF7C8
:10081000C3FC2F48001D006848B92E4810380068F6
:1008200008B9012000E000202A49103908600220A0
:100830002949086010BD10B50A20FFF7ADFC244817
:100840000830006848B923481C38006808B90120FE
:1008500000E000201F491C39086004201E49086080
:1008600010BD10B51D48806940F010001B4988611B
:100870001B4800686FF30B001949086008460068C0
:1008800040F6880108431649086001220021022031
:10089000FFF71EFD012211460220FFF719FD01227C
:1008A00002210846FFF714FD0223062219461846C6
:1008B000FFF7C6FC0223072201211846FFF7C0FC00
:1008C0000223082200211846FFF7BAFC10BD0000E1
:1008D00000012242BC0123421404014000100240E6
:1008E0000010014045F25552364B1A601A465060CE
:1008F00091604AF6AA221A604CF6CC421A60704700
:100900004AF6AA202F490860704770B506460C4683
:1009100015462D48C06940F400602B49C8612B483A
:1009200000783040294908702948006840EAC5101D
:10093000274908600846006840F4007008600846CF
:1009400000684FF680710840214908600846006839
:1009500020430860081F00681C49097841F08001A5
:1009600008431B49091F086002230022032118467F
:10097000FFF766FC70BD1649091F096800F07F0289
:100980001143134A121F1160704710B510480068D8
:1009900000F07F030E48001F006800F07F049C42B7
:1009A00003DA0A480078FFF7E6FF00200849091D2E
:1009B00008600848006808B9012000E000200549E7
:1009C000086010BD00300040001002401D000020F3
:1009D000042C0040A4012342F0B480EA0102D40FA9
:1009E0004200B2EB410F02D20246084611464A00CD
:1009F00042D0C30DDDB2C1F3C752AD1A202D35DA96
:100A0000C1F3160141F4000204B15242C5F12006BF
:100A100002FA06F12A411044B3EBD05F23D0C4B1EF
:100A2000012DA0EBC35009DCF0BC4FF0004202EAFC
:100A3000C352DBB200F5000000F0B8B8400000F18E
:100A4000807000EBC350A0F1807040EAD170490083
:100A500009E0490841EAC071A0EBC35000F500006D
:100A6000400800EBC350F0BC00F097B8614201228F
:100A700002EB4101001BF6E7F0BC704781F000413A
:100A8000AAE780F00040A7E780EA010210B502F073
:100A90000043400022D04A001FD0010E01EB12613A
:100AA000C0F35600C2F3560240F4000042F40002C4
:100AB000A0FB022000047F39140400D0401C50EA3F
:100AC000124001D44000491EC2B20C0604EBD01003
:100AD000401C4008802A02D003E0002010BD20F016
:100AE0000100002900DA0020184310BD30B480EA6C
:100AF000010202F0004530F0004221F0004013D026
:100B000090B1C30DD40DC2F31601C0F31600E41A60
:100B100041F4000140F400027D34914201D3641C91
:100B200000E04900002C02DA30BC002070474FF48E
:100B300000000023914201D3891A034340084FEA81
:100B40004101F7D151B1914202D14FF0004105E08E
:100B500002D24FF0010101E06FF0010103EBC4503C
:100B6000284430BC00F019B896230022114600F04A
:100B70001DB820F00040C10DC0F3160040F4000085
:100B80007F2901DA00207047962903DCC1F1960124
:100B9000C84070479639884070470029A8BF704701
:100BA000401C490008BF20F00100704710B4B0FAA3
:100BB00080FC00FA0CF050EA010404BF10BC70473E
:100BC00049B1CCF1200421FA04F411FA0CF118BF58
:100BD000012121430843A3EB0C01CB1D4FEA006127
:100BE0004FEA102042BF002010BC704700EBC350FA
:100BF00010440029A4BF10BC7047401C490008BF26
:100C000020F0010010BC7047064C074D06E0E0687C
:100C100040F0010394E8070098471034AC42F6D343
:100C2000FFF768FA4C0C00086C0C000802E008C8DA
:100C3000121F08C1002AFAD170477047002001E056
:100C400001C1121F002AFBD1704700006C0C000884
:100C500000000020200000002C0C00088C0C000874
:100C600020000020400200003C0C000800000000B2
:100C700000000000003F065B4F666D7D077F6FBF81
:0C0C800086DBCFE6EDFD87FFEF7F000074
:04000005080000ED02
:00000001FF
