:020000040800F2
:10000000C00200208D010008910100089301000842
:100010009501000897010008990100080000000000
:100020000000000000000000000000009B0100082C
:100030009D010008000000009F010008A1010008C8
:100040002F0A0008A3010008A3010008A30100086B
:10005000A3010008A301000889080008AF080008F0
:10006000DB080008A3010008A3010008A3010008A1
:10007000A3010008A3010008A3010008A3010008D0
:10008000A3010008A3010008A3010008A3010008C0
:10009000A3010008A3010008A3010008A3010008B0
:1000A000A3010008A3010008A3010008A3010008A0
:1000B000A30100087D0A0008A3010008A3010008AD
:1000C000A3010008A3010008A3010008A301000880
:1000D000A3010008AF050008A3010008A301000860
:1000E000A3010008A3010008A301000800F002F822
:1000F00000F03AF80AA090E8000C82448344AAF188
:100100000107DA4501D100F02FF8AFF2090EBAE885
:100110000F0013F0010F18BFFB1A43F0010318473B
:10012000940F0000B40F0000103A24BF78C878C1C3
:10013000FAD8520724BF30C830C144BF04680C60ED
:10014000704700000023002400250026103A28BF35
:1001500078C1FBD8520728BF30C148BF0B60704739
:100160001FB51FBD10B510BD00F0D1FC1146FFF743
:10017000F7FF00F025F800F0EFFC03B4FFF7F2FF03
:1001800003BC00F005FA000030BF0000084800473B
:10019000FEE7FEE7FEE7FEE7FEE7FEE7FEE7FEE737
:1001A000FEE7FEE703480449024A044B704700009B
:1001B000ED000008C0000020C0020020C0000020A8
:1001C000092000F08AF9482000F01CF84FF416517D
:1001D000482000F027FA00F09DFA41F61F4141F255
:1001E000883000F05FFC0AE00548006808B901208B
:1001F00000E0002002490860C82000F01FF8F3E783
:10020000A00123424FF0E021096921F004014FF0E1
:10021000E0221161C21700EB5272C2F3C702234BF6
:100220001A701946097801EB4102C2EBC1114FF671
:10023000FF7202EAC1011E4A1180704701461C4A42
:1002400012884A434FF0E0235A6100229A6101224A
:100250001A6100BF4FF0E022106900F001021AB1EC
:1002600000F48032002AF5D000224FF0E0231A611A
:100270009A61704701460D4A12784A434FF0E023D5
:100280005A6100229A6101221A6100BF4FF0E022F8
:10029000106900F001021AB100F48032002AF5D092
:1002A00000224FF0E0231A619A617047000000209D
:1002B00002000020AA4A0A400243AA4B1A60704773
:1002C0000146072323EA01021202A64B1B1D1868F0
:1002D0004FF6FF031840A44B18431043A14B1B1DBE
:1002E000186070472DE9F0478046894614461D4640
:1002F0002046E11704EB9171C1F3870AE11704EB83
:1003000091718910A4EB8101CFB2042000EBC700EA
:10031000C7B22846FFF7D4FFC5F1040008FA00F67B
:100320000F20284100EA0900064306F00F06202CA2
:1003300009DA8E4801680120A04001434FF0E02017
:10034000C0F800110BE08948001D0068A4F12001ED
:1003500001228A4010434FF0E021C1F80401844893
:1003600050F82A0006FA07F10843814941F82A00AB
:10037000BDE8F08770B504460B46CE1701EB9676C4
:10038000C6F38700CE1701EB9676B610A1EB860672
:10039000B606350E774B9B6943F00103754EB3618A
:1003A0004FEAB63353F820300F26AE40B343724EB7
:1003B00046F82030334653F8203004FA05F61E4341
:1003C0006D4B43F820606D4B1B6801268E40334314
:1003D0006A4E336002F0010343B1684B0C331B6873
:1003E00001268E403343654E0C36336002F0020323
:1003F00043B1624B08331E6801238B401E435F4BA1
:1004000008331E6070BD00B500205A490861C860FD
:100410001420486100208861C8610846006840F0E7
:100420000100086008464068554908405149486045
:1004300008460068534908404E490860084600686D
:1004400020F4802008600846406820F4FE004860E0
:100450000020886000214FF00060FFF72BFF00BDF7
:1004600010B540480830006840F004003D490831AC
:1004700008604048C06940F080503E49C861424829
:10048000406840F48070404948600846006840F089
:10049000040008600846006840F002000860FFF7AA
:1004A00073FE10BD3048001D2E49091D08607047BD
:1004B000014649062F4A926942F001022D4B9A618A
:1004C0002D4A083A526822F0E0622B4B083B5A60F2
:1004D0001A4652680A435A60704730B504460025F0
:1004E000FFF791FF2348006840F4803021490860FD
:1004F00000BF20480068400C0028FAD04FF480600C
:100500001C494860A01EC4B20846406840EA8440C6
:1005100048600846406840F4803048601B480068E6
:1005200040F03200194908601248006840F08070BD
:100530001049086000BF0F480068400E0028FAD03C
:100540000C48406840F002000A49486005E009484C
:100550004068C0F3870505F00305022DF7D130BDD3
:1005600080FFFF1F08ED00E00000FA0500E100E059
:1005700000E400E0001002400800014000040140D7
:100580000000FFF8FFFFF6FE007000400020024070
:10059000014600BF704700BF584A128802F040026F
:1005A000002AF9D0C2B2554B1B1D1A80704753491F
:1005B000098801F0200111B35049091D0988C8B20A
:1005C0004F49097801F08001C9B94D49097801F016
:1005D000400161B10A2803D00021494A117020E08E
:1005E0004749097841F08001454A117019E00D280A
:1005F00006D14349097841F04001414A117010E0A9
:100600003F49097801F03F013E4A50543C4909787E
:10061000491C3B4A1170114609783F2901DD002130
:10062000117070472DE9F05F05460E46300100F06D
:10063000E1FB8146344905FB01F000F0DBFB82461B
:10064000494600F0F5FA0746384600F0B3FB84B29D
:10065000204600F0CFFB8346394600F0ABFC8246D3
:100660004FF0834100F0DAFB814600F0A3FB8046A7
:100670004FF6FF7000EA041404EB080084B223482C
:10068000806940F00400214988610846806940F48F
:10069000804088611E48006820F47F601C49086023
:1006A0000846006840F40B6008601848C06840F4D1
:1006B00080401649C8600846C06820F48040C86081
:1006C0000E4808300480001D008842F20C010843E7
:1006D0000A490C3108800846008840F48070088080
:1006E0000846008840F020000880022325220321CC
:1006F0000846FFF7F7FDBDE8F09F00000038014015
:10070000080000202000002040420F00001002409E
:10071000040801405248806940F001005049886156
:100720000846806940F0080088610846806940F00A
:10073000400088614B48406840F00070494948607B
:100740004948006820F4704047490860084600683E
:1007500040F44050086044480C30006840F0080005
:1007600041490C3108604148006800203F49086059
:100770000846006840F0333008603C4808300068A4
:100780003A4908310860704700F00101384A1160A9
:10079000C0F34001374AC2F8A411C0F38001344AC3
:1007A00008321160C0F3C001121D1160C0F30011C6
:1007B000121D1160C0F34011121D1160C0F38011B1
:1007C000121D1160C0F3C0112A4AC2F8BC11704753
:1007D00030B503460C46184603EBD0714910A3EB25
:1007E0004101254A1160194603EBD172501000EB0C
:1007F000D0725210A0EB4202204DC5F88421184659
:10080000D91703EB917189101B4A083211601C49FA
:10081000085DFFF7B9FF30BD30B503460C461846FA
:1008200003EBD0714910A3EB4101134A1160194643
:1008300003EBD172501000EBD0725210A0EB4202C9
:100840000E4DC5F884211846D91703EB9171891014
:10085000094A083211600B49085DFFF795FF30BD6A
:100860000010024000000140000C0140041801404B
:10087000A0012342000023428081214200802142C6
:10088000090000201300002010B50A20FFF7D6FC55
:100890003848006838B93848006808B9012000E0D5
:1008A00000203549086001203449086010BD10B5AA
:1008B0000A20FFF7C3FC2F48001D006848B92E48E6
:1008C0001038006808B9012000E000202A491039DA
:1008D000086002202949086010BD10B50A20FFF702
:1008E000ADFC24480830006848B923481C3800682B
:1008F00008B9012000E000201F491C3908600420CD
:100900001E49086010BD10B51D48806940F01000F8
:100910001B4988611B4800686FF30B001949086088
:100920000846006840F6880108431649086001221D
:1009300000210220FFF71EFD012211460220FFF7D1
:1009400019FD012202210846FFF714FD02230622A9
:1009500019461846FFF7C6FC022307220121184654
:10096000FFF7C0FC0223082200211846FFF7BAFC5B
:1009700010BD000000012242BC01234214040140CA
:10098000001002400010014045F25552364B1A60EB
:100990001A46506091604AF6AA221A604CF6CC4280
:1009A0001A6070474AF6AA202F490860704770B550
:1009B00006460C4615462D48C06940F400602B4998
:1009C000C8612B48007830402949087029480068E0
:1009D00040EAC510274908600846006840F40070E6
:1009E0000860084600684FF6807108402149086099
:1009F0000846006820430860081F00681C49097801
:100A000041F0800108431B49091F086002230022AE
:100A100003211846FFF766FC70BD1649091F0968D7
:100A200000F07F021143134A121F1160704710B586
:100A30001048006800F07F030E48001F006800F0B7
:100A40007F049C4203DA0A480078FFF7E6FF0020A3
:100A50000849091D08600848006808B9012000E03D
:100A600000200549086010BD003000400010024021
:100A70001D000020042C0040A40123421E480088D1
:100A800000F0010038B11D48006808B9012000E0FD
:100A900000201A4908601848008820F00100164913
:100AA0000880704770B505460C461548C06940F08F
:100AB00002001349C86110481C300580001F0480E3
:100AC0000D48001F008840F001000B49091F0880F5
:100AD0000846008840F04000088007481038008829
:100AE00040F0010004491039088002231D2203212F
:100AF0000120FFF7F7FB70BD10040040A401234262
:100B00000010024070477047704770477047754645
:100B100000F028F8AE4605006946534620F007006D
:100B2000854618B020B5FFF73DFBBDE820404FF0EB
:100B300000064FF000074FF000084FF0000B21F0C7
:100B40000701AC46ACE8C009ACE8C009ACE8C00994
:100B5000ACE8C0098D4670470446AFF300802046DC
:100B6000FFF70BFB004870476000002090EA010F80
:100B700048BF81F0004100F12E82421A3CBF801A2A
:100B800089184FEAD0524FF07F4C1CEA410FA2EB7C
:100B9000D15318BF9CEA026F00F03B804FF0004C2D
:100BA0004CEA00204CEA012121FA03FC10EB0C0C6A
:100BB0001ED202F1FF325FEA1C2040EBC25038BF68
:100BC00070471CF07F0F4FEA400C18BFBCF17F4FFD
:100BD00038BF7047C3F12003994008BF20F00100DF
:100BE000BCF17F4F38BF7047A0F1C04000F0DDB9C5
:100BF0004FEA3C00000A40EBC25028BF1CF0FF0F38
:100C00004FEA400CE6D018BFBCF17F4F38BF7047A9
:100C1000EAE79CEA026F05D010EA5C0F08BF00F01B
:100C20000040704710B500F07AF900BF64FBBE3E8B
:100C30004FF47F0C1CEAD0121EBF1CEAD11392EABB
:100C40000C0F93EA0C0F00F0858090EA010F48BF6B
:100C500042F4807240F4000C41F400002CF07F411B
:100C600020F07F4000B58142A2EB03020FF2081C86
:100C7000ACEB504EC0F100009EF800E04FEA4E0E83
:100C800000FB0EFC38BF49004FEA2C1C02F5FA02AB
:100C90000CFB0EF34FEACE1E4FEA112C4FEAC12196
:100CA0000EEB635E42EB22420EFB0CFC4FEA1C5340
:100CB00000FB03114FEA112C4FEA01310EFB0CFC33
:100CC0004FEADC4C00FB0C11C14228BF09184CEB69
:100CD00003335DF804EB10EB410143EBC250B2F576
:100CE0007C0F38BF704729D512F0F00F1CBF00F100
:100CF000C04000F000407047008182838485868771
:100D000088898B8C8D8E8F919293959697999A9CCA
:100D10009D9FA0A2A3A5A7A8AAACAEB0B2B3B5B739
:100D2000B9BCBEC0C2C5C7C9CCCED1D4D7D9DCDF0F
:100D3000E2E6E9ECF0F3F7FAFE0000004FEA400CBF
:100D40000CF1807CBCF17E4F28BF7047B0F1C040F1
:100D500000F02BB990EA010F0CEAD11348BF42F41E
:100D60008072624538BF634507D213F47F0F16D0F7
:100D700080EA010000F00040704710B500F0CFF8A5
:100D8000097EFC3E00F005B880EA010000F000405A
:100D9000704780EA010000F0004000F006B912F44C
:100DA0007F0F04BF0248704780EA010000F0FDB8E1
:100DB0000000C07FC10DD1F19E0206DB4FEA002387
:100DC00043F0004323FA02F07047004207D54FEA90
:100DD0004001B1F1FE4F02D24FF00000704710B554
:100DE00000F09DF849922480002070476FEA2000AF
:100DF00070470000B0FA80F310FA03F2C3F19D03CC
:100E00000AD0D90501EB1220530638BF704700F114
:100E1000010008BF20F00100704700004FF47F0C74
:100E20001CEAD0121EBF1CEAD11392EA0C0F93EAFF
:100E30000C0F00F0478090EA010F48BF42F4807227
:100E40004FF0004C4CEA00204CEA012102EB030277
:100E5000A0FB0113A2F50002002918BF43F0010313
:100E60005B0028BF4FEA330342EB22425FEA132CB8
:100E70004CEBC2502EBFBCEB436FB2F57C0F7047FA
:100E80004FEA036CBCF1004F08BF20F00100B2F53F
:100E90007C0F38BF70470BD582F0FF0212F5803F00
:100EA000C8BF704700F1C040D8BF00F00040704795
:100EB00000F5000C5FEA4C0C48BF7047B0F1C04031
:100EC00000F073B890EA010F0CEAD11348BF42F466
:100ED0008072624538BF634504D280EA010000F0A9
:100EE0000040704710B500F01AF800BF8900013EBD
:100EF00000F007B800F009B85FEA410C5FEA1C6C2B
:100F000008D080EA010000F050B85FEA400C5FEAC8
:100F10001C6CF6D14FF00040A0F5800070470EF138
:100F2000020E2EF0030E5EF8044B244204D44FEA66
:100F30004102B2F17F4F11D84FEA4003B3F17F4F26
:100F40000CD80ED14FEAD07CB2F17F4F0CEB4C0C99
:100F50000CF1020C08BF4CEBD17C04E04FF0080C04
:100F600001E04FEAD17C0CEB4C0324FA03F404F0CB
:100F70000704B4F1040C06D20EEB840CBDE810405B
:100F80004CF0010C6047DFE80CF0070802024FF05C
:100F90000040A0F5800010BD0846420018BFD2F105
:100FA000807288BF00F0004010BDFF2141EAD050A0
:100FB000C005704780F0004090EA010F7FF5DDAD7D
:100FC00081F0004100F007B890EA010F48BF81F0BE
:100FD00000413FF5D2AD421A04D882F00042A0EBA6
:100FE000020011444FEAD0524FF07F4C1CEA410FEF
:100FF000A2EBD15318BF9CEA026F4AD04FF0004CCD
:101000004CEA00204CEA012121FA03FCB0EB0C0C65
:101010000FD412F0FE0F36D05FEA4C001DD500123F
:1010200040EBC25038BF70471CF03F0F18BF7047ED
:101030000BE0A2F101025FEA1C2040EBC25038BF76
:1010400070471CF07F0F18BF7047C3F12003994011
:1010500014BF401E20F00100704780084FEA1223A1
:1010600008BF7047B0FA80FCA2EB0C02CCF1280C50
:1010700060FA0CF093EA122F04BF00EBC2507047E5
:101080004FEAC3707047130A5FEADC1008BF70476D
:10109000F6E79CEA026F04D010EA5C0F08BF00205C
:1010A000704710B5FFF73BFF40DFF63E81F0004090
:1010B00070470000D410000800000020200000004D
:1010C00028010008F410000820000020A002000001
:1010D000440100080000000000000000003F065B23
:1010E0004F666D7D077F6FBF86DBCFE6EDFD87FF27
:0410F000EF7F00008E
:04000005080000ED02
:00000001FF
