:020000040800F2
:10000000800200208D010008910100089301000882
:100010009501000897010008990100080000000000
:100020000000000000000000000000009B0100082C
:100030009D010008000000009F010008A1010008C8
:10004000A3010008A3010008A3010008A301000800
:10005000A3010008A3010008A3010008A3010008F0
:10006000A3010008A3010008A3010008A3010008E0
:10007000A3010008A3010008A3010008A3010008D0
:10008000A3010008A3010008A3010008A3010008C0
:10009000A3010008A3010008A3010008A3010008B0
:1000A000A3010008A3010008A3010008A3010008A0
:1000B000A301000891030008A3010008A3010008A0
:1000C000A3010008A3010008A3010008A301000880
:1000D000A3010008A3010008A3010008A301000870
:1000E000A3010008A3010008A301000800F002F822
:1000F00000F03AF80AA090E8000C82448344AAF188
:100100000107DA4501D100F02FF8AFF2090EBAE885
:100110000F0013F0010F18BFFB1A43F0010318473B
:10012000D40D0000F40D0000103A24BF78C878C147
:10013000FAD8520724BF30C830C144BF04680C60ED
:10014000704700000023002400250026103A28BF35
:1001500078C1FBD8520728BF30C148BF0B60704739
:100160001FB51FBD10B510BD00F0F1FB1146FFF724
:10017000F7FF00F025F800F00FFC03B4FFF7F2FFE3
:1001800003BC00F06DFB000030BF000008480047D2
:10019000FEE7FEE7FEE7FEE7FEE7FEE7FEE7FEE737
:1001A000FEE7FEE703480449024A044B704700009B
:1001B000ED00000880000020800200208000002068
:1001C000062000F0F1FA482000F080F941F61F41C6
:1001D00042F20F7000F0B8F800F00AF8002003496E
:1001E000086001E000F004F9FCE700008C81214286
:1001F0004C48806940F001004A498861084680699E
:1002000040F0080088610846806940F0400088613D
:100210004548406840F000704349486043480068E2
:100220006FF30F00414908600846006843F233311C
:1002300008433E4908603D480C30006840F0FF002C
:100240003A490C3108603A48006800203849086093
:100250000846006840F033300860354808300068D0
:1002600040F47F4032490831086070473049083116
:10027000096821F47F412E4A08321160114609684D
:1002800041EA00211160704730B503460C4618461C
:1002900003EBD0714910A3EB4101264A11601946C6
:1002A00003EBD1724FEA620000EBD0724FEA6202B8
:1002B000A0EB4202204DC5F8842118464FEAE371B5
:1002C00003EB91714FEAA1011C4A11601C49085DC2
:1002D000FFF7CCFF30BD30B503460C46184603EBA4
:1002E000D0714910A3EB4101124A1160194603EB8A
:1002F000D1724FEA620000EBD0724FEA6202A0EBCB
:1003000042020D4DC5F8842118464FEAE37103EB14
:1003100091714FEAA101094A11600A49085DFFF78E
:10032000A5FF30BD0010024000000140000C01405C
:1003300004180140808121420080214288812142AD
:10034000000000200B00002070B505460C465A48FE
:10035000C06940F002005849C86158480580001F34
:10036000048056482038008840F001005349203965
:10037000088052482C38008840F001004F492C3941
:10038000088002231D220321012000F00DF970BD19
:100390004A481C38008810F0010F20D048480078E7
:1003A000401C47490870084600783B2817DD0020AC
:1003B000087044480078401C42490870084600789C
:1003C0003B280CDD002008703F480078401C3E4967
:1003D000087008460078172801DD002008703748AB
:1003E0001C38008820F0010034491C39088070470F
:1003F00010B5354800780A2190FBF1F0C4B22146CF
:100400000020FFF741FF012000F07BF82E48007824
:100410000A2190FBF1F201FB1200C4B22146012037
:10042000FFF732FF012000F06CF80A210220FFF7ED
:100430002BFF012000F065F8224800780A2190FB8C
:10044000F1F0C4B221460320FFF71EFF012000F0A7
:1004500058F81C4800780A2190FBF1F201FB1200C9
:10046000C4B221460420FFF70FFF012000F049F835
:100470000A210520FFF708FF012000F042F810488C
:1004800000780A2190FBF1F0C4B221460620FFF764
:10049000FBFE012000F035F8094800780A2190FBA6
:1004A000F1F201FB1200C4B221460720FFF7ECFE77
:1004B000012000F026F810BD001002402C0400407E
:1004C0001700002016000020150000204FF0E0214A
:1004D000096921F004014FF0E0221161C21700EB1D
:1004E0005272D210224B1A701946097801EB410260
:1004F000C2EBC1114FF6FF7202EAC1011D4A118021
:10050000704701461B4A12884A434FF0E0235A6164
:1005100000229A6101221A6100BF4FF0E0221069A7
:1005200010F0010F02D010F4803FF6D000224FF0FF
:10053000E0231A619A61704701460D4A12784A43D6
:100540004FF0E0235A6100229A6101221A6100BF34
:100550004FF0E022106910F0010F02D010F4803F3C
:10056000F6D000224FF0E0231A619A617047000034
:10057000180000201A000020AC4A0A400243AC4B8D
:100580001A6070470146072323EA01021202A84BB2
:100590001B1D18684FF6FF031840A64B1843104365
:1005A000A34B1B1D186070472DE9F0478046894614
:1005B00014461D462046E11704EB91714FEAA10A4B
:1005C000E11704EB91718910A4EB8101CFB20420F3
:1005D00000EBC700C7B22846FFF7D4FFC5F10400FF
:1005E00008FA00F60F20284100EA0900064306F049
:1005F0000F06202C0CDA904800684FF0010101FA38
:1006000004F140EA01004FF0E021C1F800010DE0E3
:100610008A480068A4F120014FF0010202FA01F2B9
:1006200040EA02004FF0E021C1F80401844850F88C
:100630002A0006FA07F140EA0100814941F82A0040
:10064000BDE8F08770B504460B46CE1701EB9676F1
:10065000B010CE1701EB9676B610A1EB8606B60663
:10066000350E784B9B6943F00103764EB3614FEA38
:10067000B63353F820300F26AE40B343724E46F8DF
:100680002030334653F8203004FA05F633436E4EDB
:1006900046F820306D4B1E6801238B401E436B4B88
:1006A0001E6012F0010F08D0684B0C331B68012646
:1006B0008E403343654E0C36336012F0020F08D083
:1006C000624B08331B6801268E4033435F4E083669
:1006D000336070BD00B500205A490861C86014201D
:1006E000486100208861C8610846006840F0010048
:1006F0000860084640685649084052494860084624
:100700000068544908404F4908600846006820F4D2
:10071000802008600846406820F4FE004860002001
:10072000886000214FF00060FFF726FF00BD10B584
:100730003F480830006840F004003D490831086037
:100740004048C06940F080503E49C8614248406816
:1007500040F48070404948600846006840F004005A
:1007600008600846006840F002000860FFF70CFDD2
:1007700010BD3048001D2E49091D08607047014614
:100780004906304A926942F001022E4B9A612E4A84
:10079000083A526822F0E0622B4B083B5A601A4636
:1007A00052680A435A60704730B504460025FFF787
:1007B00091FF2448006840F480302249086000BF5F
:1007C00020480068400CFBD04FF480601D49486011
:1007D000A01EC4B20846406840EA8440486008460B
:1007E000406840F4803048601C48006840F03200A7
:1007F0001A4908601348006840F080701149086089
:1008000000BF10480068400EFBD00E48406840F022
:1008100002000C49486005E00A484068C0F38705BB
:1008200005F00305022DF7D130BD000080FFFF1F4A
:1008300008ED00E00000FA0500E100E004E100E05E
:1008400000E400E000100240080001400004014004
:100850000000FFF8FFFFF6FE00700040002002409D
:10086000014600BF704700BF324A128812F0400FA5
:10087000FAD0C2B22F4B1B1D1A8070472DE9F05FD2
:1008800005460E46300100F0D5F981462A4905FBA0
:1008900001F000F0CFF98246494600F0E9F807463A
:1008A000384600F0A7F984B2204600F0C3F9834629
:1008B000394600F09FFA82464FF0834100F0CEF9AE
:1008C000814600F097F980464FF6FF7000EA041465
:1008D00004EB080084B21948806940F0040017490D
:1008E00088610846806940F4804088611448006847
:1008F00020F47F60124908600846006840F40B60ED
:1009000008600E48C06840F480400C49C860084642
:10091000C06820F48040C860064808300480001D8C
:10092000008842F20C01084302490C310880BDE8FE
:10093000F09F00000038014040420F0000100240CC
:10094000040801407047704770477047704775460C
:1009500000F028F8AE4605006946534620F007002F
:10096000854618B020B5FFF71DFCBDE820404FF0CC
:1009700000064FF000074FF000084FF0000B21F089
:100980000701AC46ACE8C009ACE8C009ACE8C00956
:10099000ACE8C0098D4670470446AFF3008020469E
:1009A000FFF7EBFB004870471C00002090EA010FA6
:1009B00048BF81F0004100F12E82421A3CBF801AEC
:1009C00089184FEAD0524FF07F4C1CEA410FA2EB3E
:1009D000D15318BF9CEA026F00F03B804FF0004CEF
:1009E0004CEA00204CEA012121FA03FC10EB0C0C2C
:1009F0001ED202F1FF325FEA1C2040EBC25038BF2A
:100A000070471CF07F0F4FEA400C18BFBCF17F4FBE
:100A100038BF7047C3F12003994008BF20F00100A0
:100A2000BCF17F4F38BF7047A0F1C04000F0DDB986
:100A30004FEA3C00000A40EBC25028BF1CF0FF0FF9
:100A40004FEA400CE6D018BFBCF17F4F38BF70476B
:100A5000EAE79CEA026F05D010EA5C0F08BF00F0DD
:100A60000040704710B500F07AF900BF64FBBE3E4D
:100A70004FF47F0C1CEAD0121EBF1CEAD11392EA7D
:100A80000C0F93EA0C0F00F0858090EA010F48BF2D
:100A900042F4807240F4000C41F400002CF07F41DD
:100AA00020F07F4000B58142A2EB03020FF2081C48
:100AB000ACEB504EC0F100009EF800E04FEA4E0E45
:100AC00000FB0EFC38BF49004FEA2C1C02F5FA026D
:100AD0000CFB0EF34FEACE1E4FEA112C4FEAC12158
:100AE0000EEB635E42EB22420EFB0CFC4FEA1C5302
:100AF00000FB03114FEA112C4FEA01310EFB0CFCF5
:100B00004FEADC4C00FB0C11C14228BF09184CEB2A
:100B100003335DF804EB10EB410143EBC250B2F537
:100B20007C0F38BF704729D512F0F00F1CBF00F1C1
:100B3000C04000F000407047008182838485868732
:100B400088898B8C8D8E8F919293959697999A9C8C
:100B50009D9FA0A2A3A5A7A8AAACAEB0B2B3B5B7FB
:100B6000B9BCBEC0C2C5C7C9CCCED1D4D7D9DCDFD1
:100B7000E2E6E9ECF0F3F7FAFE0000004FEA400C81
:100B80000CF1807CBCF17E4F28BF7047B0F1C040B3
:100B900000F02BB990EA010F0CEAD11348BF42F4E0
:100BA0008072624538BF634507D213F47F0F16D0B9
:100BB00080EA010000F00040704710B500F0CFF867
:100BC000097EFC3E00F005B880EA010000F000401C
:100BD000704780EA010000F0004000F006B912F40E
:100BE0007F0F04BF0248704780EA010000F0FDB8A3
:100BF0000000C07FC10DD1F19E0206DB4FEA002349
:100C000043F0004323FA02F07047004207D54FEA51
:100C10004001B1F1FE4F02D24FF00000704710B515
:100C200000F09DF849922480002070476FEA200070
:100C300070470000B0FA80F310FA03F2C3F19D038D
:100C40000AD0D90501EB1220530638BF704700F1D6
:100C5000010008BF20F00100704700004FF47F0C36
:100C60001CEAD0121EBF1CEAD11392EA0C0F93EAC1
:100C70000C0F00F0478090EA010F48BF42F48072E9
:100C80004FF0004C4CEA00204CEA012102EB030239
:100C9000A0FB0113A2F50002002918BF43F00103D5
:100CA0005B0028BF4FEA330342EB22425FEA132C7A
:100CB0004CEBC2502EBFBCEB436FB2F57C0F7047BC
:100CC0004FEA036CBCF1004F08BF20F00100B2F501
:100CD0007C0F38BF70470BD582F0FF0212F5803FC2
:100CE000C8BF704700F1C040D8BF00F00040704757
:100CF00000F5000C5FEA4C0C48BF7047B0F1C040F3
:100D000000F073B890EA010F0CEAD11348BF42F427
:100D10008072624538BF634504D280EA010000F06A
:100D20000040704710B500F01AF800BF8900013E7E
:100D300000F007B800F009B85FEA410C5FEA1C6CEC
:100D400008D080EA010000F050B85FEA400C5FEA8A
:100D50001C6CF6D14FF00040A0F5800070470EF1FA
:100D6000020E2EF0030E5EF8044B244204D44FEA28
:100D70004102B2F17F4F11D84FEA4003B3F17F4FE8
:100D80000CD80ED14FEAD07CB2F17F4F0CEB4C0C5B
:100D90000CF1020C08BF4CEBD17C04E04FF0080CC6
:100DA00001E04FEAD17C0CEB4C0324FA03F404F08D
:100DB0000704B4F1040C06D20EEB840CBDE810401D
:100DC0004CF0010C6047DFE80CF0070802024FF01E
:100DD0000040A0F5800010BD0846420018BFD2F1C7
:100DE000807288BF00F0004010BDFF2141EAD05062
:100DF000C005704780F0004090EA010F7FF5DDAD3F
:100E000081F0004100F007B890EA010F48BF81F07F
:100E100000413FF5D2AD421A04D882F00042A0EB67
:100E2000020011444FEAD0524FF07F4C1CEA410FB0
:100E3000A2EBD15318BF9CEA026F4AD04FF0004C8E
:100E40004CEA00204CEA012121FA03FCB0EB0C0C27
:100E50000FD412F0FE0F36D05FEA4C001DD5001201
:100E600040EBC25038BF70471CF03F0F18BF7047AF
:100E70000BE0A2F101025FEA1C2040EBC25038BF38
:100E800070471CF07F0F18BF7047C3F120039940D3
:100E900014BF401E20F00100704780084FEA122363
:100EA00008BF7047B0FA80FCA2EB0C02CCF1280C12
:100EB00060FA0CF093EA122F04BF00EBC2507047A7
:100EC0004FEAC3707047130A5FEADC1008BF70472F
:100ED000F6E79CEA026F04D010EA5C0F08BF00201E
:100EE000704710B5FFF73BFF40DFF63E81F0004052
:100EF00070470000140F0008000000201C000000D4
:100F000028010008300F00081C00002064020000C7
:100F1000440100083F065B4F666D7D077F6F40BF51
:100F200086DBCFE6EDFD87FFEF000000000000004C
:04000005080000ED02
:00000001FF
