:020000040800F2
:10000000A80200208D01000891010008930100085A
:100010009501000897010008990100080000000000
:100020000000000000000000000000009B0100082C
:100030009D010008000000009F010008A1010008C8
:10004000A3010008A3010008A3010008A301000800
:10005000A3010008A3010008A3010008A3010008F0
:10006000A3010008A3010008A3010008A3010008E0
:10007000A3010008A3010008A3010008A3010008D0
:10008000A3010008A3010008A3010008A3010008C0
:10009000A3010008A3010008A3010008A3010008B0
:1000A000A3010008A3010008A3010008A3010008A0
:1000B000A3010008A3010008A3010008A301000890
:1000C000A3010008A3010008A3010008A301000880
:1000D000A3010008A3010008A3010008A301000870
:1000E000A3010008A3010008A301000800F002F822
:1000F00000F03AF80AA090E8000C82448344AAF188
:100100000107DA4501D100F02FF8AFF2090EBAE885
:100110000F0013F0010F18BFFB1A43F0010318473B
:100120001807000038070000103A24BF78C878C1CB
:10013000FAD8520724BF30C830C144BF04680C60ED
:10014000704700000023002400250026103A28BF35
:1001500078C1FBD8520728BF30C148BF0B60704739
:100160001FB51FBD10B510BD00F02BFB1146FFF7EA
:10017000F7FF00F025F800F049FB03B4FFF7F2FFAA
:1001800003BC00F051FB000030BF000008480047EE
:10019000FEE7FEE7FEE7FEE7FEE7FEE7FEE7FEE737
:1001A000FEE7FEE703480449024A044B704700009B
:1001B000ED000008A8000020A8020020A8000020F0
:1001C000062000F0A0FA482000F032F900F08CF888
:1001D00000203E4908603E4908703E49087073E0BF
:1001E0003D4800684FF47A7190FBF1F201FB120078
:1001F00018BB374800780B2802D10020344908701A
:100200000020344908700FE03248007830490978FE
:1002100008443249095C32482E4A127881542D48EC
:100220000078401C2B4908702A4800780828EBDB2E
:1002300027480078401C264908700020254908708E
:100240003EE0274823490978405CC82823D121494A
:10025000087800EBD0714910A0EB41011B4A0C3A21
:1002600011601C4A117801EBD172501000EBD07272
:100270005210A0EB42021B4BC3F8842115490878A9
:10028000C11700EB91718910104A121F11600020F4
:1002900000F068F807E012480E4A1278815C0D48B9
:1002A000007800F06DF8012000F0DEF80A480068E0
:1002B000401C0949086007480078401C054908703F
:1002C000044800780828BCDB8AE700008C812142C2
:1002D0002D0000202C00002004000020120000202F
:1002E00024000020008021424948806940F001003C
:1002F000474988610846806940F0080088610846DF
:10030000806940F0400088614248406840F00070D9
:1003100040494860404800686FF30F003E4908605C
:100320000846006843F2333108433B4908603A48C5
:100330000C30006840F0FF0037490C310860374846
:1003400000680020354908600846006840F03330F6
:10035000086032480830006840F47F402F49083177
:10036000086070472D490831096821F47F412B4A04
:10037000083211601146096841EA00211160704796
:1003800030B503460C46184603EBD0714910A3EB79
:100390004101234A1160194603EBD172501000EB62
:1003A000D0725210A0EB42021E4DC5F884211846AF
:1003B000D91703EB91718910194A083211601A4953
:1003C000085DFFF7CFFF30BD30B503460C46184639
:1003D00003EBD0714910A3EB4101114A116019469A
:1003E00003EBD172501000EBD0725210A0EB42021E
:1003F0000C4DC5F884211846D91703EB917189106B
:10040000074A083211600949085DFFF7ABFF30BDAC
:100410000010024000000140000C0140041801409F
:1004200080812142008021422E00002038000020DF
:100430004FF0E021096921F004014FF0E022116141
:10044000C21700EB5272C2F3C702234B1A7019464F
:10045000097801EB4102C2EBC1114FF6FF7202EACB
:10046000C1011E4A1180704701461C4A12884A4346
:100470004FF0E0235A6100229A6101221A6100BF05
:100480004FF0E022106900F001021AB100F480324E
:10049000002AF5D000224FF0E0231A619A617047DC
:1004A00001460D4A12784A434FF0E0235A61002278
:1004B0009A6101221A6100BF4FF0E022106900F03A
:1004C00001021AB100F48032002AF5D000224FF068
:1004D000E0231A619A617047420000204400002026
:1004E000AA4A0A400243AA4B1A60704701460723F2
:1004F00023EA01021202A64B1B1D18684FF6FF03E8
:100500001840A44B18431043A14B1B1D18607047A3
:100510002DE9F0478046894614461D462046E117DE
:1005200004EB9171C1F3870AE11704EB9171891013
:10053000A4EB8101CFB2042000EBC700C7B228466C
:10054000FFF7D4FFC5F1040008FA00F60F20284198
:1005500000EA0900064306F00F06202C09DA8E484F
:1005600001680120A04001434FF0E020C0F80011D5
:100570000BE08948001D0068A4F1200101228A4097
:1005800010434FF0E021C1F80401844850F82A00DC
:1005900006FA07F10843814941F82A00BDE8F087CF
:1005A00070B504460B46CE1701EB9676C6F387006E
:1005B000CE1701EB9676B610A1EB8606B606350E81
:1005C000774B9B6943F00103754EB3614FEAB63335
:1005D00053F820300F26AE40B343724E46F8203019
:1005E000334653F8203004FA05F61E436D4B43F8AA
:1005F00020606D4B1B6801268E4033436A4E33608A
:1006000002F0010343B1684B0C331B6801268E4096
:100610003343654E0C36336002F0020343B1624B44
:1006200008331E6801238B401E435F4B08331E6056
:1006300070BD00B500205A490861C86014204861A7
:1006400000208861C8610846006840F00100086029
:1006500008464068554908405149486008460068C6
:10066000534908404E4908600846006820F480203D
:1006700008600846406820F4FE004860002088605A
:1006800000214FF00060FFF72BFF00BD10B5404880
:100690000830006840F004003D49083108604048D7
:1006A000C06940F080503E49C8614248406840F40B
:1006B0008070404948600846006840F004000860C7
:1006C0000846006840F002000860FFF75DFD10BDBD
:1006D0003048001D2E49091D086070470146490633
:1006E0002F4A926942F001022D4B9A612D4A083A35
:1006F000526822F0E0622B4B083B5A601A4652685F
:100700000A435A60704730B504460025FFF791FF51
:100710002348006840F480302149086000BF204829
:100720000068400C0028FAD04FF480601C494860F3
:10073000A01EC4B20846406840EA844048600846AB
:10074000406840F4803048601B48006840F0320048
:10075000194908601248006840F08070104908602C
:1007600000BF0F480068400E0028FAD00C484068CF
:1007700040F002000A49486005E009484068C0F3BB
:10078000870505F00305022DF7D130BD80FFFF1F5F
:1007900008ED00E00000FA0500E100E000E400E000
:1007A0000010024008000140000401400000FFF872
:1007B000FFFFF6FE007000400020024070477047C7
:1007C0007047754600F02CF8AE4605006946534662
:1007D00020F00700854618B020B5FFF7E3FCBDE820
:1007E00020404FF000064FF000074FF000084FF098
:1007F000000B21F00701AC46ACE8C009ACE8C00929
:10080000ACE8C009ACE8C0098D46704710B5044695
:10081000AFF300802046BDE81040FFF7AEBC0000FB
:10082000004870474800002001491820ABBEFEE791
:100830002600020070470000580800080000002051
:100840004800000028010008A00800084800002017
:1008500060020000440100080000000000000000E9
:100860003F065B4F666D7D077F6F0200000500014C
:1008700000020105C8C8C8C8C8C8C8C80000000030
:100880000000000000003F065B4F666D7D077F6F34
:10089000BF86DBCFE6EDFD87FFEF00000000000024
:04000005080000ED02
:00000001FF
