:020000040800F2
:10000000180200200101000805010008070100088E
:10001000090100080B0100080D01000800000000A4
:100020000000000000000000000000000F010008B8
:10003000110100080000000013010008150100086C
:100040001701000817010008170100081701000830
:100050001701000817010008C1050008E70500089E
:10006000130600081701000817010008170100080F
:100070001701000817010008170100081701000800
:1000800017010008170100081701000817010008F0
:1000900017010008170100081701000817010008E0
:1000A00017010008170100081701000817010008D0
:1000B00017010008170100081701000817010008C0
:1000C00017010008170100081701000817010008B0
:1000D00017010008170100081701000817010008A0
:1000E000170100081701000817010008DFF80CD0FD
:1000F00000F0E6FA004800471D0100081802002041
:1001000005480047FEE7FEE7FEE7FEE7FEE7FEE7FD
:10011000FEE7FEE7FEE7FEE7ED000008092000F03D
:100120003BF9482000F00AF800F090F900F087FA57
:1001300002E0642000F01EF8FBE700004FF0E02131
:10014000096921F004014FF0E0221161C21700EBB0
:100150005272C2F3C702234B1A701946097801EB99
:100160004102C2EBC1114FF6FF7202EAC1011E4A01
:100170001180704701461C4A12884A434FF0E02321
:100180005A6100229A6101221A6100BF4FF0E022F9
:10019000106900F001021AB100F48032002AF5D093
:1001A00000224FF0E0231A619A61704701460D4A20
:1001B00012784A434FF0E0235A6100229A610122EB
:1001C0001A6100BF4FF0E022106900F001021AB17D
:1001D00000F48032002AF5D000224FF0E0231A61AB
:1001E0009A61704700000020020000208C4A0A40FB
:1001F00002438C4B1A6070470146072323EA010231
:100200001202884B1B1D18684FF6FF031840864BDF
:1002100018431043834B1B1D186070472DE9F047AE
:100220008046894614461D462046E11704EB91712D
:10023000C1F3870AE11704EB91718910A4EB8101E6
:10024000CFB2042000EBC700C7B22846FFF7D4FFA7
:10025000C5F1040008FA00F60F20284100EA090061
:10026000064306F00F06202C09DA704801680120C9
:10027000A04001434FF0E020C0F800110BE06B48B4
:10028000001D0068A4F1200101228A4010434FF0B4
:10029000E021C1F80401664850F82A0006FA07F187
:1002A0000843634941F82A00BDE8F08770B5044669
:1002B0000B46CE1701EB9676C6F38700CE1701EBFF
:1002C0009676B610A1EB8606B606350E594B9B699D
:1002D00043F00103574EB3614FEAB63353F8203071
:1002E0000F26AE40B343544E46F82030334653F801
:1002F000203004FA05F61E434F4B43F820604F4B65
:100300001B6801268E4033434C4E336002F00103DC
:1003100043B14A4B0C331B6801268E403343474E92
:100320000C36336002F0020343B1444B08331E68BD
:1003300001238B401E43414B08331E6070BD00B546
:1003400000203C490861C860142048610020886191
:10035000C8610846006840F001000860084640682F
:100360003749084033494860084600683549084025
:10037000304908600846006820F48020086008467C
:10038000406820F4FE0048600020886000214FF0A3
:100390000060FFF72BFF00BD30B504460025FFF7D6
:1003A000CEFF2448006840F480302249086000BF36
:1003B00020480068400C0028FAD04FF480601D49A6
:1003C0004860A01EC4B20846406840EA84404860C5
:1003D0000846406840F4803048601B48006840F0A0
:1003E0003200194908601348006840F080701149D4
:1003F000086000BF0F480068400E0028FAD00D4882
:10040000406840F002000B49486005E00948406838
:10041000C0F3870505F00305022DF7D130BD0000BC
:1004200080FFFF1F08ED00E00000FA0500E100E09A
:1004300000E400E000100240080001400004014018
:100440000000FFF8FFFFF6FE0020024052488069DE
:1004500040F00100504988610846806940F008007A
:1004600088610846806940F0400088614B484068D8
:1004700040F00070494948604948006820F47040E5
:10048000474908600846006840F440500860444806
:100490000C30006840F0080041490C3108604148C8
:1004A000006800203F4908600846006840F033308B
:1004B00008603C48083000683A49083108607047D5
:1004C00000F00101384A1160C0F34001374AC2F818
:1004D000A411C0F38001344A08321160C0F3C00196
:1004E000121D1160C0F30011121D1160C0F3401104
:1004F000121D1160C0F38011121D1160C0F3C011F4
:100500002A4AC2F8BC11704730B503460C4618465B
:1005100003EBD0714910A3EB4101254A1160194644
:1005200003EBD172501000EBD0725210A0EB4202DC
:10053000204DC5F884211846D91703EB9171891015
:100540001B4A083211601C49085DFFF7B9FF30BD36
:1005500030B503460C46184603EBD0714910A3EBA7
:100560004101134A1160194603EBD172501000EBA0
:10057000D0725210A0EB42020E4DC5F884211846ED
:10058000D91703EB91718910094A083211600B49A0
:10059000085DFFF795FF30BD0010024000000140EC
:1005A000000C014004180140A00123420000234236
:1005B0008081214200802142040000200E000020A2
:1005C00010B50A20FFF7D6FD3848006838B938481A
:1005D000006808B9012000E00020354908600120CA
:1005E0003449086010BD10B50A20FFF7C3FD2F483D
:1005F000001D006848B92E481038006808B901206D
:1006000000E000202A4910390860022029490860CA
:1006100010BD10B50A20FFF7ADFD24480830006872
:1006200048B923481C38006808B9012000E00020C0
:100630001F491C39086004201E49086010BD10B510
:100640001D48806940F010001B4988611B48006804
:100650006FF30B00194908600846006840F68801EE
:10066000084316490860012200210220FFF71EFE00
:10067000012211460220FFF719FE0122022108463D
:10068000FFF714FE0223062219461846FFF7C6FD9F
:100690000223072201211846FFF7C0FD022308228A
:1006A00000211846FFF7BAFD10BD000000012242EC
:1006B000BC0123421404014000100240001001401C
:1006C000064C074D06E0E06840F0010394E807009F
:1006D00098471034AC42F6D3FFF70CFD040700082E
:1006E0002407000802E008C8121F08C1002AFAD136
:1006F00070477047002001E001C1121F002AFBD1A2
:1007000070470000240700080000002018000000C7
:10071000E40600083C070008180000200002000062
:10072000F4060008000000003F065B4F666D7D0781
:0C0730007F6FBF86DBCFE6EDFD87FFEF9B
:04000005080000ED02
:00000001FF
