:020000040800F2
:10000000681A002005010008090100080B0100081A
:100010000D0100080F010008110100080000000098
:1000200000000000000000000000000013010008B4
:1000300015010008000000001F250008FF0100084E
:100040001B0100081B0100081B0100081B01000820
:100050001B0100081B0100081B0100081B01000810
:100060001B0100081B0100081B0100081B01000800
:100070001B0100081B0100081B0100081B010008F0
:100080001B0100081B0100081B0100081B010008E0
:100090001B0100081B0100081B0100081B010008D0
:1000A0001B0100081B0100081B0100081B010008C0
:1000B0001B0100081B0100081B0100081B010008B0
:1000C0001B0100081B0100081B0100081B010008A0
:1000D0001B010008DB0500081B0100081B010008CC
:1000E0001B0100081B0100081B010008DFF80CD0F1
:1000F00002F088FB00480047C5010008681A00208C
:1001000030BF000005480047FEE7FEE7FEE7FEE7D8
:10011000FEE7FEE7FEE7FEE7FEE7FEE7ED0000088C
:100120000DE03E48006808B9012000E000203B498E
:100130000860C82300221146104602F0BEF8F0E71E
:1001400010E036481438006808B9012000E00020AB
:100150003249143908604FF4FA73002211461046F0
:1001600002F0ABF8EDE710B5044600BF02F0A0F9CD
:1001700009232B4A0021AFF2370001F018FE0523B6
:10018000284A0021AFF2670001F011FE0A2001F0B9
:10019000F9FF02F096F910BD4FF0E020006920F061
:1001A00004004FF0E02108610846006940F00200B9
:1001B000086142F2283048610846006940F00100B9
:1001C0000861704710B5092000F09DF9482000F043
:1001D0002FF84FF41651482000F03AFA00F0B0FA28
:1001E000FFF7DAFF00F03EFC0A230F4A0021AFF2CE
:1001F000890001F0DCFD00F0F9FC002010BD10B515
:1002000002F056F909480078401C0849087002F0CD
:1002100058F900F028FD00F04BFC10BDB801234256
:1002200064020020640100206404002039000020E2
:100230004FF0E021096921F004014FF0E022116143
:10024000C21700EB5272C2F3C702234B1A70194651
:10025000097801EB4102C2EBC1114FF6FF7202EACD
:10026000C1011E4A1180704701461C4A12884A4348
:100270004FF0E0235A6100229A6101221A6100BF07
:100280004FF0E022106900F001021AB100F4803250
:10029000002AF5D000224FF0E0231A619A617047DE
:1002A00001460D4A12784A434FF0E0235A6100227A
:1002B0009A6101221A6100BF4FF0E022106900F03C
:1002C00001021AB100F48032002AF5D000224FF06A
:1002D000E0231A619A6170470000002002000020AC
:1002E000AA4A0A400243AA4B1A60704701460723F4
:1002F00023EA01021202A64B1B1D18684FF6FF03EA
:100300001840A44B18431043A14B1B1D18607047A5
:100310002DE9F0478046894614461D462046E117E0
:1003200004EB9171C1F3870AE11704EB9171891015
:10033000A4EB8101CFB2042000EBC700C7B228466E
:10034000FFF7D4FFC5F1040008FA00F60F2028419A
:1003500000EA0900064306F00F06202C09DA8E4851
:1003600001680120A04001434FF0E020C0F80011D7
:100370000BE08948001D0068A4F1200101228A4099
:1003800010434FF0E021C1F80401844850F82A00DE
:1003900006FA07F10843814941F82A00BDE8F087D1
:1003A00070B504460B46CE1701EB9676C6F3870070
:1003B000CE1701EB9676B610A1EB8606B606350E83
:1003C000774B9B6943F00103754EB3614FEAB63337
:1003D00053F820300F26AE40B343724E46F820301B
:1003E000334653F8203004FA05F61E436D4B43F8AC
:1003F00020606D4B1B6801268E4033436A4E33608C
:1004000002F0010343B1684B0C331B6801268E4098
:100410003343654E0C36336002F0020343B1624B46
:1004200008331E6801238B401E435F4B08331E6058
:1004300070BD00B500205A490861C86014204861A9
:1004400000208861C8610846006840F0010008602B
:1004500008464068554908405149486008460068C8
:10046000534908404E4908600846006820F480203F
:1004700008600846406820F4FE004860002088605C
:1004800000214FF00060FFF72BFF00BD10B5404882
:100490000830006840F004003D49083108604048D9
:1004A000C06940F080503E49C8614248406840F40D
:1004B0008070404948600846006840F004000860C9
:1004C0000846006840F002000860FFF719FE10BD02
:1004D0003048001D2E49091D086070470146490635
:1004E0002F4A926942F001022D4B9A612D4A083A37
:1004F000526822F0E0622B4B083B5A601A46526861
:100500000A435A60704730B504460025FFF791FF53
:100510002348006840F480302149086000BF20482B
:100520000068400C0028FAD04FF480601C494860F5
:10053000A01EC4B20846406840EA844048600846AD
:10054000406840F4803048601B48006840F032004A
:10055000194908601248006840F08070104908602E
:1005600000BF0F480068400E0028FAD00C484068D1
:1005700040F002000A49486005E009484068C0F3BD
:10058000870505F00305022DF7D130BD80FFFF1F61
:1005900008ED00E00000FA0500E100E000E400E002
:1005A0000010024008000140000401400000FFF874
:1005B000FFFFF6FE0070004000200240014600BF31
:1005C000704700BF584A128802F04002002AF9D052
:1005D000C2B2554B1B1D1A8070475349098801F060
:1005E000200111B35049091D0988C8B24F49097843
:1005F00001F08001C9B94D49097801F0400161B1AC
:100600000A2803D00021494A117020E0474909789F
:1006100041F08001454A117019E00D2806D1434987
:10062000097841F04001414A117010E03F490978D2
:1006300001F03F013E4A50543C490978491C3B4A6D
:100640001170114609783F2901DD002111707047B2
:100650002DE9F05F05460E46300102F083F8814631
:10066000344905FB01F002F07DF88246494602F06C
:100670003BF80746384602F07AF884B2204602F08A
:1006800071F88346394601F0FAFF82464FF0834104
:1006900001F0F8FF814602F06AF880464FF6FF70DD
:1006A00000EA041404EB080084B22348806940F097
:1006B0000400214988610846806940F480408861CF
:1006C0001E48006820F47F601C49086008460068E6
:1006D00040F40B6008601848C06840F48040164938
:1006E000C8600846C06820F48040C8600E480830E2
:1006F0000480001D008842F20C0108430A490C31B5
:1007000008800846008840F4807008800846008809
:1007100040F0200008800223252203210846FFF72D
:10072000F7FDBDE8F09F0000003801400800002000
:100730006804002040420F000010024004080140FD
:100740005248806940F0010050498861084680693C
:1007500040F0080088610846806940F040008861E8
:100760004B48406840F0007049494860494800687B
:1007700020F47040474908600846006840F4405043
:10078000086044480C30006840F0080041490C31D2
:1007900008604148006800203F490860084600683A
:1007A00040F0333008603C48083000683A4908316E
:1007B0000860704700F00101384A1160C0F3400141
:1007C000374AC2F8A411C0F38001344A08321160DC
:1007D000C0F3C001121D1160C0F30011121D1160A1
:1007E000C0F34011121D1160C0F38011121D116081
:1007F000C0F3C0112A4AC2F8BC11704730B5034695
:100800000C46184603EBD0714910A3EB4101254A71
:100810001160194603EBD172501000EBD0725210E8
:10082000A0EB4202204DC5F884211846D91703EBEE
:10083000917189101B4A083211601C49085DFFF74D
:10084000B9FF30BD30B503460C46184603EBD071F6
:100850004910A3EB4101134A1160194603EBD17211
:10086000501000EBD0725210A0EB42020E4DC5F8B2
:1008700084211846D91703EB91718910094A08326F
:1008800011600B49085DFFF795FF30BD0010024075
:1008900000000140000C014004180140A001234267
:1008A0000000234280812142008021420900002073
:1008B0001300002000BF03E04FF4FA6001F0D4FC05
:1008C000FE4800780028F7D0FD4800686421B0FB9E
:1008D000F1F400BF01F0ECFDFA480068FA49086045
:1008E000F84806680020F749086001F0EAFD6CB19D
:1008F000B6FBF4F0C0F1640045B2002D02DBF34812
:1009000005700BE00020F149087007E00020EF4976
:100910000870EB4800686421B0FBF1F401F0C2FDFF
:100920004FF47A7001F0A0FCD4E700B585B0032045
:1009300000214FF40072E64BCDE90132CDE90310FE
:100940004FF6FE700B23E34A0090AFF2970001F0E0
:1009500077FA05B000BD00BF00BF01F0A9FDD9487E
:100960000068401CD749086001F0ABFD01F09EFD16
:10097000F3E700B585B0032000214FF40072D64B99
:10098000CDE90132CDE903104FF6FF700C23D34AB5
:100990000090AFF23D0001F053FA05B000BD10B574
:1009A000CF4800F10C02002106E0002303704260F2
:1009B0000C300C324B1C99B20129F6DB002303707A
:1009C0004360C74BC74C236010BD10B50023C64C15
:1009D0002360002005E00023C44C44F82030431C71
:1009E000D8B20D28F7DBC24901F13402002004E03F
:1009F0004A6134313432431CD8B20C28F8DB00236E
:100A00004B61BB4BBB4C236010BD0022BA4B1A702C
:100A1000BA49002004E0002201F8012B421C90B2E8
:100A20000228F8DB0022B64B1A70B64B1A70B64B90
:100A30001A60B64B1A6070470020B5490860B54986
:100A40000870B5490870B5490870B5490870B549CE
:100A500008609C4908609C4908609949086097496A
:100A60000870704710B501F016FDFFF7E5FFFFF7BE
:100A7000CCFFFFF7AAFFFFF792FF00F0C8FD00F0E0
:100A80007DFE01F0E2F8FFF774FFFFF74EFF01F083
:100A900003FD10BDA2480078012808D19D480078C8
:100AA000FF2804DA9B480078401C9A490870704778
:100AB00010B59B480078012837D101F0F9FC954822
:100AC0000078002804DD93480078401E91490870A2
:100AD0009048007838BB9048007820BB92488649FF
:100AE0000978405C9149087084480978405C8E49D7
:100AF000085C8E49097800EBC100824908700846FD
:100B000000787F49097888420DD078487D49097876
:100B100050F821007C49086082480068401C8149E7
:100B2000086001F0F4FC01F0CCFC10BD10B57C486D
:100B3000007801280CD101F0BBFC77480078FF2831
:100B400004DA75480078401C7349087001F0B9FC5C
:100B500010BD10B501F0ACFC6E48007810BB6E48BB
:100B60000078F8B9704864490978445C6348005DCE
:100B70006D49085C00EBC4006249087008460078C3
:100B80005F49097888420DD058485E49097850F885
:100B900021005D49086063480068401C61490860A5
:100BA00001F0AEFC01F08DFC10BD10B55C48007882
:100BB00001281AD101F07CFC57480078002812DD8A
:100BC00055480078401E544908700846007838B9E6
:100BD0005048007820B901F074FCFFF7BAFF04E038
:100BE00001F06FFC01E001F06CFC10BD70B54C48E9
:100BF0000078E0B94C4840490978445C3F48005DC2
:100C000049490D5C05EBC4003E4908700846007870
:100C10003B49087035483B49097850F821003A496A
:100C20000860084600683949086001F058FC70BD4A
:100C300010B5022001F018FB01F03AFC0020214918
:100C4000086001F03EFC4FF47A7001F00DFB01F0FA
:100C50002FFC1C4800681A490860012017490870D9
:100C600001F02FFC10BD10B501F01FFC01F020FCBD
:100C700027480068401C2649086001F022FC2848EB
:100C80000078012867D11848046860E001F010FC82
:100C9000608D88B1608D401E80B2608560B994F827
:100CA0002C0000F0080040B92F34A07812490978D0
:100CB0000843114908703BE046E043E0380000205B
:100CC0003000002044000020340000202C000020D0
:100CD000FC040020F80C0020FC0C0020F81400207C
:100CE000A80400202400002054000020FC14002050
:100CF000301500204C0000203E0000203F00002066
:100D00003C0000203D000020500000204800002052
:100D100060000020390000203B000020420000203D
:100D200041000020200000204E2800083A0000204A
:100D30002078A149085C6178084314F82F199E4A6D
:100D4000505401E001206085646901F0BAFB94F819
:100D50002D000C289AD110BDFC20704770472DE95A
:100D6000F04303460C46154693F80180DFF84C9299
:100D700019F80820DFF8488218F802C003F10808C3
:100D800018F8028019F80860DFF8348218F8067045
:100D900006EBC20808F0FF0003F1080818F802800B
:100DA00028EA070803F1080909F80280B8F1000FE2
:100DB00005D193F8018028EA0C0883F80180DFF858
:100DC000048258F820104FF00008A1F82A80C1F8DA
:100DD0001C800C6291F82C8028EA050881F82C8090
:100DE00091F82C80B8F1000F13D1DFF8DC8198F86E
:100DF000008048EA0C08DFF8D09189F80080DFF81D
:100E0000B88118F8028048EA0708DFF8AC9109F8C1
:100E10000280BDE8F0836D490968C8616B490968C3
:100E200091F82F10644A515C684A126892F8302099
:100E30009143664A126892F82F205F4B995441B94A
:100E40006249096891F831205F49097891435E4A07
:100E500011705E49096891F82F2000F10801895C42
:100E60005A4A126892F830201143584A126892F890
:100E70002F3000F10802D1544178544A126892F898
:100E800031201143417070475049096891F82F2073
:100E900000F10801895C4D4A126892F830209143B4
:100EA0004A4A126892F82F3000F10802D15431B941
:100EB0004178464A126892F83120914341700021EE
:100EC000424A126882F82C10404A1268D161704779
:100ED000014600224A7001F1080000F8012B00F8D9
:100EE000012B70472DE9F05F05460E4617469846E0
:100EF000DDE90BABDDF8289001F0DAFA344804683C
:100F0000002C54D054F8140F3149086001F0D9FA7C
:100F100044F8146C657600202076E08244F810AC2A
:100F200044F8089C44F80C7C24F804BC24F8028C97
:100F3000A077E810E076E07E2149085C607705F054
:100F40000700A076A07E085C20770020A0602061CA
:100F5000E060143C204601F0A6FA204601F09DFA1C
:100F600001F0A6FA174840F825401A480068606169
:100F70000020A0611748006810B11648006884611D
:100F8000144804602F34A0780F49097808430E49AB
:100F9000087020780849085C6178084314F82F1914
:100FA000054A505401F08DFA0020BDE8F09F01F091
:100FB00088FA4620F9E700003F0000204E2800088C
:100FC00046280008FC1400203E00002048000020B5
:100FD0004C000020540000202DE9F04704460F4645
:100FE00092461E4624B9962030700020BDE8F08756
:100FF0002078052803D0012030700020F6E70AF0A1
:10100000800020B12AF0800A4FF0010901E04FF082
:1010100000090020307001F04BFABAF1000F2ED019
:10102000BAF1010F3ED0BAF1020F03D0BAF1030FAB
:101030004AD112E0208900EA0705BD4206D1B9F184
:10104000010F05D12089A843208101E0982030704C
:10105000B4F8088001F035FA3DE0208900EA070580
:1010600035B1B9F1010F05D12089A843208101E0F4
:1010700098203070B4F8088001F023FA2BE0208922
:1010800027EA0005BD4206D1B9F1010F05D120893B
:101090002843208101E098203070B4F8088001F0E6
:1010A00010FA18E0208927EA000535B1B9F1010FDF
:1010B00005D120892843208101E098203070B4F8C0
:1010C000088001F0FEF906E001F0FBF94FF000089E
:1010D0009720307000BF00BF404687E770B50646D6
:1010E0000D46FC480078002803DD8D202870002084
:1010F00070BD01F0DDF9F84804686CB10068406823
:10110000F54908600520207026810020606001F00C
:10111000D8F90020287003E001F0D3F99A20287054
:101120002046E5E730B501464A6808682AB9CC6828
:10113000606028B10025456002E0106000B14260A7
:101140008B6800255D6230BDF0B506460F46B46879
:101150000020283460802780207920F02000207132
:101160002079283C88B92F34A078DC4909780843D5
:10117000DA4908702078DA49085C6178084314F885
:101180002F19D74A5054012500E000253046FFF7BB
:10119000C9FF2846F0BD2DE9F041044688461546B2
:1011A000CC480078002804DD8C2028702046BDE85B
:1011B000F0811CB9962028702046F8E72078052891
:1011C00003D0012028702046F1E701F071F9606832
:1011D00008B1012600E00026B8F1000F03D0B8F1F5
:1011E000010F2CD112E05EB900202070BA480068CF
:1011F0006060B948046001F064F900202870D6E707
:1012000001F05FF9082028702046D0E7676804E005
:1012100000213846FFF798FF3F68002FF8D10020E3
:101220002070AD4800686060AB48046001F049F987
:10123000012E01D1FFF78DFC00202870B7E701F0E7
:1012400040F9072028702046B1E7F0B5059DA54E6E
:10125000366896F82C6046F02006A24F3F6887F863
:101260002C60A04E366875859E4E366871620A8283
:101270008B749C4E36688E6046680E6000264E6009
:10128000C860446804B161604160964E366896F863
:101290002F60934FBE5D934F3F6897F83070BE4309
:1012A000904F3F6897F82F70DFF834C20CF8076052
:1012B00046B98C4E366896F83170884E3678BE4303
:1012C000864F3E70F0BD2DE9F04F87B004460F46C3
:1012D00092469B46109E7F480078002805DD02203C
:1012E0003070002007B0BDE8F08F1CB99620307038
:1012F0000020F7E72078052803D001203070002077
:10130000F0E70AF0800020B12AF0800A4FF00109CE
:1013100001E04FF0000901F0CBF8BAF1000F44D022
:10132000BAF1010F5FD0BAF1020F03D0BAF1030F87
:1013300077D11DE0208900EA0705BD420DD1B9F142
:10134000010F02D12089A8432081B4F8088001F060
:10135000B8F8002030704046C4E753463A4602A928
:101360002046CDF800B0FFF770FF01F0AAF860E06A
:10137000208900EA07056DB1B9F1010F02D120897A
:10138000A8432081B4F8088001F09BF80020307059
:101390004046A7E753463A4602A92046CDF800B09A
:1013A000FFF753FF01F08DF843E0208927EA00059D
:1013B000BD420DD1B9F1010F02D12089284320810E
:1013C000B4F8088001F07DF800203070404689E7CD
:1013D00053463A4602A92046CDF800B0FFF735FF44
:1013E00001F06FF825E0208927EA00056DB1B9F119
:1013F000010F02D1208928432081B4F8088001F030
:1014000060F80020307040466CE753463A4602A927
:101410002046CDF800B0FFF718FF01F052F808E0C1
:10142000FFE701F04EF84FF000089720307040467B
:1014300058E700BFFFF78DFB01F03AF82948006834
:1014400090F82C0000F0200070B102A8FFF76AFEAF
:1014500000202449096881F82C0001F032F84FF08F
:1014600000080A20307026E0B9F1010F1DD1BAF151
:10147000000F11D0BAF1010F0FD0BAF1020F03D053
:10148000BAF1030F10D100E000BF208915490968A7
:10149000098D8843208107E000BF20891149096830
:1014A000098D0843208100BF00BFB4F8088001F017
:1014B00008F800203070404614E72DE9F05F04463C
:1014C000884691461E467CB9962030700020BDE8C3
:1014D000F09F000039000020280000203E0000207E
:1014E0003F000020480000202078052803D001207C
:1014F00030700020EBE700F0DBFFB9F1000F03D004
:10150000B9F1010F0AD104E0208920EA0800208106
:101510000AE0208940EA0800208105E000F0D1FFC0
:10152000992030700020D2E700BF4FF0000A6568B4
:1015300042E0A87C10B301282FD0022802D0032853
:1015400038D10EE02089298A00EA0107288AB842AA
:1015500006D139462846FFF7F7FD012800D182461B
:1015600028E02089298A00EA010737B13946284650
:10157000FFF7EAFD012800D182461BE0288A218975
:1015800020EA0107288AB84206D139462846FFF7E3
:10159000DBFD012800D182460CE0288A218920EA5F
:1015A000010737B139462846FFF7CEFD012800D1A3
:1015B000824600BF00BF2D68002DBAD100F081FF28
:1015C000BAF1010F01D1FFF7C4FA00F071FFB4F8CE
:1015D00008B000F076FF00203070584677E770B50D
:1015E00004460D461CB996202870002070BD207856
:1015F000052803D0012028700020F7E700F058FFED
:10160000268900F05EFF002028703046EEE710B516
:10161000094800F10C02002106E00023037042603B
:101620000C300C324B1CD9B20429F6DB002343608A
:10163000014B024C236010BDC00400202800002094
:101640002DE9F05F05460F4690461E4625B97620E7
:1016500030700020BDE8F09F022F03D26F20307061
:101660000020F7E7B8F1040F03D27020307000209B
:10167000F0E700F01DFF50480468006820B14E48B4
:10168000006840684C49086000F01BFF1CB96E20E0
:1016900030700020DEE7A94605EB080A4FF0000B8A
:1016A00005E0C9F800A0D146C2440BF1010B781E39
:1016B0005845F6D80020C9F800002560656027610C
:1016C000E760C4F8088030702046C3E770B5044670
:1016D0000D461CB974202870002070BD00F0E8FE93
:1016E000206958B16668306860602069401E2061DA
:1016F00000F0E7FE002028703046EEE700F0E1FE43
:10170000712028700020E8E770B504460D460CB93A
:10171000742070BD0DB97320FBE700F0C9FED4E959
:101720000310884203D300F0CCFE7220F1E760681A
:10173000286065602069401C206100F0C2FE002026
:10174000E7E770B505460C460DB9742070BD0CB9BD
:101750007520FBE700F0ACFE2868206068686060D8
:10176000A868A060E868E0602869206100F0A9FE30
:10177000D4E90301401A60610020E7E70F48002127
:101780000EE04A1C02EB82020C4B03EB8202426029
:10179000002202600261C260826014304A1C91B271
:1017A0000429EEDB0022426002600261C2608260B6
:1017B000024A014B1A60704758000020D4170020DD
:1017C00070B505460DB9002070BD2878022801D0FB
:1017D0000020F9E700F06CFE6C68E08A00280DDD5F
:1017E0002169081D20610E68E08A401EE082A16820
:1017F0002069884203D16068206100E0002600F083
:1018000060FE3046E0E72DE9F04106460F46F74816
:101810000078002802DD0020BDE8F08100F048FEDD
:10182000F3480568006820B1F14800684068F04955
:10183000086000F046FE25B300F03AFEED4804686B
:10184000BCB100680068EB49086000F03AFE6660D1
:1018500006EB8700A060E6602661A7820020E08298
:1018600002202870002068806C602846FFF730FB5B
:1018700007E0DF4800686860DD48056000F021FE91
:1018800000252846C8E72DE9F0410446884615465C
:10189000D6480078002804DD8C2028700020BDE8A0
:1018A000F0811CB9042028702046F8E7207802282F
:1018B00003D0012028702046F1E700F0F9FD6078A0
:1018C00008B1012700E00027B8F1000F03D0B8F1FC
:1018D000010F38D118E08FB96668C64800683060DB
:1018E000C448066000202070C14800686060C0489D
:1018F000046000F0E6FD00202870D0E700F0E1FD74
:10190000082028702046CAE704E00422002120466F
:10191000FFF725FA60780028F7D16668B5480068B7
:101920003060B448066000202070B14800686060F4
:10193000AF48046000F0C5FD012F01D1FFF709F9A0
:1019400000202870ABE700F0BCFD0720287020467F
:10195000A5E770B505460DB9042070BD28780228AA
:1019600001D00120F9E700F0A3FD6C686068E06039
:10197000606820610020E08200F0A3FD0020ECE719
:101980002DE9F0410646884615469848007800281B
:1019900004DD022028700020BDE8F0811EB904207B
:1019A00028700020F8E73078022803D00120287042
:1019B0000020F1E700F07CFD7468E08A002812DD69
:1019C0002169081D20610F68E08A401EE082A1683D
:1019D0002069884201D16068206100F072FD00201A
:1019E00028703846D8E78448006890F82C0040F00A
:1019F00004008149096881F82C007F480068A0F83C
:101A00002A803046FFF707FA00F05BFDFFF7A1F8E8
:101A100000F04EFD78480068076A87B100207649DB
:101A2000096808627449096881F82C0072490968DC
:101A3000C86100F046FD002028703846ACE730460B
:101A4000FFF722FA00F03DFD0A2028700020A3E7EE
:101A500070B505460E460DB9042070BD0EB90320C1
:101A6000FBE72878022801D00120F6E700F020FDEE
:101A7000687850B1042231462846FFF770F900F02B
:101A800020FDFFF766F80020E7E76C68E08AA18A8E
:101A9000884203DB00F015FD1E20DEE7E168081D2B
:101AA000E0600E60E08A401CE082D4E902108842C7
:101AB00001D16068E06000F004FD0020CDE770B562
:101AC00005460E460DB9042070BD0EB90320FBE794
:101AD0002878022801D00120F6E700F0E9FC6878B8
:101AE00050B1042231462846FFF739F900F0E9FCED
:101AF000FFF72FF80020E7E76C68E08AA18A8842A8
:101B000003DB00F0DEFC1E20DEE76168206988420E
:101B100001D1A06820612069001F20612069066052
:101B2000E08A401CE08200F0CCFC0020CCE72DE9EC
:101B3000F04105460E46174615B90420BDE8F08170
:101B40000EB90320FAE72878022801D00120F5E732
:101B500000F0AEFC6878B8B107F0010048B104E0CD
:101B6000042231462846FFF7FAF868780028F7D1B2
:101B700004E0042231462846FFF7F1F800F0A1FC0A
:101B8000FEF7E7FF0020D9E76C68E08AA18A884267
:101B900003DB00F096FC1E20D0E707F0020058B1EE
:101BA00061682069884201D1A06820612069001F16
:101BB00020612069066009E0E168081DE0600E60B0
:101BC000D4E90210884201D16068E060E08A401CDC
:101BD000E08200F076FC0020B0E72DE9F0410546F8
:101BE0000C465DB90420BDE8F081000039000020FA
:101BF000240000205C0000204800002028780228F3
:101C000001D00120EFE700F053FC6878A07205F1E5
:101C1000080704F1080817F8010B08F8010B17F87A
:101C2000010B08F8010B6E68F08A002803DD3069AB
:101C30000068206001E000202060F08AA080B08A67
:101C4000E08000F03EFC0020CDE710B5084800F130
:101C50001802002104E00260183018324B1C99B2BF
:101C60000129F8DB00230360014B024C236010BD07
:101C7000381800205C0000202DE9F05F80460E46F9
:101C8000B8F10C0F02DBB8F1FF0F01D10C2E02DB13
:101C90002A20BDE8F09F00F00BFCF74850F8260022
:101CA00018B100F00EFC2820F3E70120F24941F8BA
:101CB000260000F006FCF710F04810F807A006F028
:101CC000070B10F80B9000F0F3FBB8F1FF0F03D1F6
:101CD000EB48006890F82D80E74850F82840002C29
:101CE0005DD00020E44941F8280094F82F00E54930
:101CF000085C94F830100840F0B114F82F0FE14957
:101D0000085C6178884314F82F19DE4A505430B9C2
:101D100094F83110DC4800788843DB490870DA48D1
:101D2000007840EA0A00D8490870D648C05D40EA09
:101D30000900D449C8551FE0E569EDB114F82F1F1B
:101D400005F10800405C6178884314F82F2905F1FB
:101D50000801885420B9687894F831108843687075
:101D6000687840EA0A00687005F10800C05D40EA42
:101D7000090005F10801C855BF4840F8264084F81D
:101D80002D6084F82F7084F82EB084F831A084F888
:101D9000309000F096FBFEF7DCFE002079E7002093
:101DA000B54941F8260000F08CFB292071E72DE9A8
:101DB000FE4306460F4690461C460C2C02DD2A20A8
:101DC000BDE8FE8300F074FBAB4850F8240090BBE4
:101DD0000120A94941F8240000F073FB002342468A
:101DE0003946304600F00AFB814600200090019001
:101DF00003460246494602902046FFF773F805461F
:101E00007DB900F055FBA1480078401C9F4908703F
:101E100000F057FB9E48007801280AD1FEF799FE92
:101E200007E000F045FB0020934941F8240000F052
:101E300048FB2846C4E7FFE700F043FB2820BFE744
:101E40002DE9FF5F81468A4693461C46DDE90F78FF
:101E5000129D0C2C03DD2A2004B0BDE8F09F00F099
:101E600027FB854850F8240000283DD101208249F5
:101E700041F8240000F025FB05F0010010B905F041
:101E8000020020B14FEA8801384600F098FB2B464B
:101E90005A465146484600F0B1FA03901198CDE9F0
:101EA000008002953A4620460E9B0399FFF71AF8E8
:101EB00006467EB900F0FCFA74480078401C73496D
:101EC000087000F0FEFA7248007801280AD1FEF787
:101ED00040FE07E000F0ECFA0020674941F82400DA
:101EE00000F0EFFA3046B7E700F0EBFA2820B3E74E
:101EF0002DE9F041054600BF66480078002802DD64
:101F00003F20BDE8F0810C2D01D13D20F9E70C2DDB
:101F100003DBFF2D01D02A20F3E700F0C9FAFF2DE3
:101F200003D15748006890F82D50534850F8254089
:101F3000002C6CD014F82F0F5249085C617888434C
:101F400014F82F194F4A505430B994F831104E48B4
:101F5000007888434C490870E6698EB114F82F1F49
:101F600006F10800405C6178884314F82F2906F1D7
:101F70000801885420B9707894F831108843707043
:101F8000676A17B13846FFF7CDF80020608584F8FE
:101F90002C0041480078FF2804DA3F480078401CB4
:101FA0003D49087000F08DFAFEF7D8FE00F080FA87
:101FB00039480078002804DD37480078401E36494B
:101FC0000870204600F06BFA30480078401E2F4918
:101FD00008700020284941F82500A06930B9002088
:101FE000616988612D496069086005E0D4E90501EF
:101FF0004861D4E905108861294800686061284873
:10200000046000F05EFAFEF7A4FD002079E700F01E
:1020100058FA3C2075E72DE9F04104460C2C02D11A
:102020003D20BDE8F0810C2C03DBFF2C01D02A20E1
:10203000F7E7FF2C09D100F03BFA1148006890F84F
:10204000327000F03EFA3846EBE700F031FA0A4809
:1020500050F8246026B13E2086F83200002500E0CA
:102060000B2500F02EFA2846DBE770B505460C2D4F
:1020700018DB2A2070BD0000FC1400204628000850
:10208000480000203F0000203E00002042000020C9
:1020900041000020390000203B00002054000020B7
:1020A0004C00002000F004FA6B4850F825401CB9A1
:1020B00000F007FA642070BD94F82C0000F00800CE
:1020C00008B394F82C0020F0080084F82C00B0B974
:1020D000608DA0B92F34A0786049097808435F4922
:1020E000087020785E49085C6178084314F82F195D
:1020F0005B4A505400F0E5F9FEF72BFD01E000F0DB
:10210000E0F90020D7E700F0DCF96520D3E72DE9FE
:10211000F04704460D460C2C04DDFF2C02D02A208B
:10212000BDE8F08700202860686000F0C1F9FF2C4E
:1021300003D14C48006890F82D40474850F824607F
:102140001EB900F0BEF90B20EAE7307C00F0010078
:1021500018B900F0B6F98220E2E70027D6F80C9013
:10216000D6F8088000F0ADF900E07F1C58F8041B99
:102170000029FAD0B8002860A9EB07008000686049
:102180000020CDE770B505460C2D01D15B2070BD58
:102190000C2D03DBFF2D01D02A20F8E700F088F991
:1021A000FF2D05D12F48006890F82D50012608E03A
:1021B0002C48006890F82D00A84201D1012600E0CB
:1021C0000026254850F825401CB900F07AF95A201D
:1021D000DDE714F82F0F2249085C6178884314F872
:1021E0002F191F4A505430B994F831101B48007809
:1021F00088431A49087094F82C0040F0080084F8CD
:102200002C0000F05EF9012E01D1FEF7A2FC0020A7
:10221000BDE770B504460E460C2C03DDFF2C01D043
:102220002A2070BD00F044F9FF2C03D10D4800684E
:1022300090F82D40084850F824501DB900F041F99D
:102240002920EEE734222946304600F09FF900F0BD
:1022500038F90020E5E70000FC1400203E000020D3
:102260003F0000204800002010B50446002C23DD6C
:1022700000F01EF95C48006890F82F005B49085C8C
:102280005949096891F8301088435749096891F80D
:102290002F10564A505440B95348006890F83110F6
:1022A000534800788843524908704F480068448575
:1022B00000F007F9FEF74DFC10BD2DE9F047804610
:1022C0000D4616461C46B8F1000F05DC002D03DC58
:1022D000002E01DC002C3DDD3B2D02DD5120BDE850
:1022E000F0873B2E01DD5220F9E7B4F57A7F01DB60
:1022F0005320F4E74FF47A7060434FF47A71B0FBE7
:10230000F1F14FF4616008FB00F0C5EB051200EB42
:102310008200304400EB4002C2EBC01001EBC0076A
:102320004FF6FF7000EA1749BFB23846FFF79CFF2F
:102330000BE04FF40040FFF797FF4FF40040FFF72A
:1023400093FFA9F101001FFA80F9B9F1000FF0DC49
:102350000020C4E75420C2E770B505460C2D01DB10
:102360002A2070BD00F0A4F8224850F825402CB374
:10237000608DF8B10020608594F82C0000F0080012
:10238000A0B92F34A0781A49097808431849087071
:1023900020781649085C6178084314F82F19134A0D
:1023A000505400F08EF8FEF7D4FB01E000F089F8FD
:1023B0000020D6E700F085F85020D2E700F081F841
:1023C0000B20CEE710B500F073F80B48046800F05E
:1023D00078F8204610BD10B5044600F069F80648AC
:1023E000046000F06EF810BD480000203F0000209F
:1023F0003E000020FC1400206000002070B5044660
:1024000010464FF080750560051F28462C606FF060
:102410000106051F28462E604FF01236051F28467C
:102420002E604FF00336051F28462E604FF002360F
:10243000051F28462E607610051F28462E60051FB2
:10244000284629604FF01136051F28462E604FF0B0
:102450001036051F28462E604FF00936051F284606
:102460002E604FF00836051F28462E604FF00736C5
:10247000051F28462E604FF00636051F28462E60A1
:102480004FF00536051F28462E604FF00436051F15
:1024900028462E6070BD7047704700BF704700BF70
:1024A00070477047704700BF704770477047000023
:1024B00072B606B42B490A7802F101020A7006BC12
:1024C000704706B427490A78A2F101020A704FF05A
:1024D0000001002A08BF81F3108806BC7047224C17
:1024E000224D25604FF0000484F30988204C4FF002
:1024F000010525701F4C4FF08055256062B6FEE740
:1025000030B41C4C4FF08055256030BC704730B45F
:10251000184C4FF08055256030BC704700BF72B634
:10252000EFF3098028B1203880E8F00F12490968DC
:10253000086000B5114880475DF804EB1048114968
:102540000A7802700C4810490A680260106890E826
:10255000F00F203080F309884EF0040E62B6704709
:1025600072B670476400002020ED00E00000FFFF1D
:102570004100002004ED00E048000020A3240008F2
:102580003C0000203D0000205000002040EA0103F4
:102590009B0703D009E008C9121F08C0042AFAD219
:1025A00003E011F8013B00F8013B521EF9D27047DD
:1025B000D2B201E000F8012B491EFBD27047002285
:1025C000F6E710B513460A4604461946FFF7F0FF32
:1025D000204610BDF0B480EA0102D40F4200B2EBF5
:1025E000410F02D20246084611464A0042D0C30DAE
:1025F000DDB2C1F3C752AD1A202D35DAC1F3160191
:1026000041F4000204B15242C5F1200602FA06F17B
:102610002A411044B3EBD05F23D0C4B1012DA0EB0D
:10262000C35009DCF0BC4FF0004202EAC352DBB2F7
:1026300000F5000000F0B8B8400000F1807000EB39
:10264000C350A0F1807040EAD170490009E0490808
:1026500041EAC071A0EBC35000F50000400800EB58
:10266000C350F0BC00F097B86142012202EB410177
:10267000001BF6E7F0BC704781F00041AAE780F04C
:102680000040A7E780EA010210B502F000434000D5
:1026900022D04A001FD0010E01EB1261C0F3560098
:1026A000C2F3560240F4000042F40002A0FB0220F4
:1026B00000047F39140400D0401C50EA124001D4B9
:1026C0004000491EC2B20C0604EBD010401C40086A
:1026D000802A02D003E0002010BD20F00100002974
:1026E00000DA0020184310BD30B480EA010202F085
:1026F000004530F0004221F0004013D090B1C30DEE
:10270000D40DC2F31601C0F31600E41A41F400011F
:1027100040F400027D34914201D3641C00E0490082
:10272000002C02DA30BC002070474FF40000002378
:10273000914201D3891A034340084FEA4101F7D17E
:1027400051B1914202D14FF0004105E002D24FF069
:10275000010101E06FF0010103EBC450284430BCDB
:1027600000F019B896230022114600F01DB820F0A1
:102770000040C10DC0F3160040F400007F2901DACB
:1027800000207047962903DCC1F19601C8407047CC
:102790009639884070470029A8BF7047401C4900FF
:1027A00008BF20F00100704710B4B0FA80FC00FAB6
:1027B0000CF050EA010404BF10BC704749B1CCF1E1
:1027C000200421FA04F411FA0CF118BF012121436D
:1027D0000843A3EB0C01CB1D4FEA00614FEA102028
:1027E00042BF002010BC704700EBC35010440029CA
:1027F000A4BF10BC7047401C490008BF20F0010076
:1028000010BC7047064C074D06E0E06840F001033D
:1028100094E8070098471034AC42F6D3FDF76AFC01
:10282000502900087029000802E008C8121F08C1DA
:10283000002AFAD170477047002001E001C1121F41
:10284000002AFBD1704701020408102040800000DC
:102850000100020001000300010002000100040069
:102860000100020001000300010002000100050058
:102870000100020001000300010002000100040049
:102880000100020001000300010002000100060037
:102890000100020001000300010002000100040029
:1028A0000100020001000300010002000100050018
:1028B0000100020001000300010002000100040009
:1028C00001000200010003000100020001000700F6
:1028D00001000200010003000100020001000400E9
:1028E00001000200010003000100020001000500D8
:1028F00001000200010003000100020001000400C9
:1029000001000200010003000100020001000600B6
:1029100001000200010003000100020001000400A8
:102920000100020001000300010002000100050097
:102930000100020001000300010002000100040088
:10294000010002000100030001000200010000007C
:1029500070290008000000206800000028280008F6
:10296000D829000868000020001A00003828000854
:102970000000000000000000003F065B4F666D7D18
:10298000077F6FBF86DBCFE6EDFD87FFEF0000001E
:102990000000000000000000000000000000000037
:1029A0000000000000000000000000000000000027
:1029B0000000000000000000000000000000000017
:1029C0000000000000000000000000000000000007
:0829D0000000000000000000FF
:04000005080000ED02
:00000001FF
