:020000040800F2
:1000000068020020890100088D0100088F010008A6
:10001000910100089301000895010008000000000C
:100020000000000000000000000000009701000830
:1000300099010008000000009B0100089D010008D4
:100040009F0100089F0100089F0100089F01000810
:100050009F0100089F0100089F0100089F01000800
:100060009F0100089F0100089F0100089F010008F0
:100070009F0100089F0100089F0100089F010008E0
:100080009F0100089F0100089F0100089F010008D0
:100090009F0100089F0100089F0100089F010008C0
:1000A0009F0100089F0100089F0100089F010008B0
:1000B0009F0100089F0100089F0100089F010008A0
:1000C0009F0100089F0100089F0100089F01000890
:1000D0009F0100089F0100089F0100089F01000880
:1000E0009F0100089F0100089F01000800F002F82E
:1000F00000F03AF80AA090E8000C82448344AAF188
:100100000107DA4501D100F02FF8AFF2090EBAE885
:100110000F0013F0010F18BFFB1A43F0010318473B
:100120006C0200008C020000103A24BF78C878C12D
:10013000FAD8520724BF30C830C144BF04680C60ED
:10014000704700000023002400250026103A28BF35
:1001500078C1FBD8520728BF30C148BF0B60704739
:100160001FB51FBD10B510BD00F0D9F81146FFF73F
:10017000F7FF00F03BF800F0F7F803B4FFF7F2FFE9
:1001800003BC00F0FBF8000008480047FEE7FEE76C
:10019000FEE7FEE7FEE7FEE7FEE7FEE7FEE7FEE737
:1001A00003480449024A044B70470000ED00000870
:1001B00068000020680200206800002010B5014699
:1001C00000220FE0002308E0002401E0601C84B25C
:1001D000B4F57A7FFADB581C83B2B3F57A7FF3DB90
:1001E000501C82B28A42EDDB002010BD4548806978
:1001F00040F00100434988610846806940F00800EA
:1002000088610846806940F0400088613E48406847
:1002100040F000703C4948603C48006820F4704061
:100220003A4908600846006840F440500860374882
:100230000C30006840F0080034490C3108600020A0
:10024000334908600846006840F0333008603048A1
:100250000830006840F47F402D49083108600520CF
:10026000FFF7ACFF4DE04FF480702949083108607A
:100270000220FFF7A3FF002026490968086002203A
:10028000FFF79CFF01202349096808600220FFF75F
:1002900095FF4FF400701E49083108600220FFF7F7
:1002A0008DFF4FF480601A49083108600220FFF783
:1002B00085FF4FF400601649083108600220FFF7FF
:1002C0007DFF4FF480501249083108600220FFF78B
:1002D00075FF4FF400500E49083108600220FFF707
:1002E0006DFF4FF480400A49083108600220FFF793
:1002F00065FF4FF400400649083108600220FFF70F
:100300005DFFB0E70010024000000140000C01401A
:100310000418014000000020704770477047754680
:1003200000F028F8AE4605006946534620F0070065
:10033000854618B020B5FFF733FFBDE820404FF0E9
:1003400000064FF000074FF000084FF0000B21F0BF
:100350000701AC46ACE8C009ACE8C009ACE8C0098C
:10036000ACE8C0098D4670470446AFF300802046D4
:10037000FFF703FF004870470400002001491820E0
:10038000ABBEFEE72600020070470000AC03000889
:10039000000000200400000028010008B00300084D
:1003A000040000206402000044010008A001234270
:04000005080000ED02
:00000001FF
