:020000040800F2
:1000000020020020090100080D0100080F0100086E
:10001000110100081301000815010008000000008C
:1000200000000000000000000000000017010008B0
:1000300019010008000000001B0100081D01000854
:100040001F0100081F0100081F0100081F01000810
:100050001F0100081F0100081F0100081F01000800
:100060001F0100081F0100081F0100081F010008F0
:100070001F0100081F0100081F0100081F010008E0
:100080001F0100081F0100081F0100081F010008D0
:100090001F0100081F0100081F0100081F010008C0
:1000A0001F0100081F0100081F0100081F010008B0
:1000B0001F0100081F0100081F0100081F010008A0
:1000C0001F0100081F0100081F0100081F01000890
:1000D0001F0100081F0100081F0100081F01000880
:1000E0001F0100081F0100081F010008DFF810D0E1
:1000F00000F028FB0048004725010008AFF300800E
:100100002002002030BF000005480047FEE7FEE760
:10011000FEE7FEE7FEE7FEE7FEE7FEE7FEE7FEE7B7
:10012000ED000008092000F0A4F9482000F036F89E
:1001300000F0FAF900F0B2FA2DE000F0C3FA04463C
:1001400034B3012C04D0022C0BD0032C1FD113E0AC
:100150001148006808B9012000E000200E4908603D
:1001600015E00D480C30006808B9012000E00020BF
:1001700009490C3108600AE007481C30006808B9DA
:10018000012000E0002004491C31086000BF02E0AB
:100190000A2000F01FF8D0E7A00123424FF0E02131
:1001A000096921F004014FF0E0221161C21700EB50
:1001B0005272C2F3C702234B1A701946097801EB39
:1001C0004102C2EBC1114FF6FF7202EAC1011E4AA1
:1001D0001180704701461C4A12884A434FF0E023C1
:1001E0005A6100229A6101221A6100BF4FF0E02299
:1001F000106900F001021AB100F48032002AF5D033
:1002000000224FF0E0231A619A61704701460D4ABF
:1002100012784A434FF0E0235A6100229A6101228A
:100220001A6100BF4FF0E022106900F001021AB11C
:1002300000F48032002AF5D000224FF0E0231A614A
:100240009A6170470000002002000020AA4A0A407C
:100250000243AA4B1A6070470146072323EA0102B2
:100260001202A64B1B1D18684FF6FF031840A44B43
:1002700018431043A14B1B1D186070472DE9F04730
:100280008046894614461D462046E11704EB9171CD
:10029000C1F3870AE11704EB91718910A4EB810186
:1002A000CFB2042000EBC700C7B22846FFF7D4FF47
:1002B000C5F1040008FA00F60F20284100EA090001
:1002C000064306F00F06202C09DA8E48016801204B
:1002D000A04001434FF0E020C0F800110BE0894836
:1002E000001D0068A4F1200101228A4010434FF054
:1002F000E021C1F80401844850F82A0006FA07F109
:100300000843814941F82A00BDE8F08770B50446EA
:100310000B46CE1701EB9676C6F38700CE1701EB9E
:100320009676B610A1EB8606B606350E774B9B691E
:1003300043F00103754EB3614FEAB63353F82030F2
:100340000F26AE40B343724E46F82030334653F882
:10035000203004FA05F61E436D4B43F820606D4BC8
:100360001B6801268E4033436A4E336002F001035E
:1003700043B1684B0C331B6801268E403343654EF6
:100380000C36336002F0020343B1624B08331E683F
:1003900001238B401E435F4B08331E6070BD00B5C8
:1003A00000205A490861C860142048610020886113
:1003B000C8610846006840F00100086008464068CF
:1003C000554908405149486008460068534908406B
:1003D0004E4908600846006820F4802008600846FE
:1003E000406820F4FE0048600020886000214FF043
:1003F0000060FFF72BFF00BD10B5404808300068D3
:1004000040F004003D49083108604048C06940F0B0
:1004100080503E49C8614248406840F4807040497D
:1004200048600846006840F004000860084600681C
:1004300040F002000860FFF765FE10BD3048001D67
:100440002E49091D08607047014649062F4A9269E6
:1004500042F001022D4B9A612D4A083A526822F06F
:10046000E0622B4B083B5A601A4652680A435A60B6
:10047000704730B504460025FFF791FF2348006818
:1004800040F480302149086000BF20480068400CDB
:100490000028FAD04FF480601C494860A01EC4B206
:1004A0000846406840EA844048600846406840F496
:1004B000803048601B48006840F0320019490860ED
:1004C0001248006840F080701049086000BF0F4873
:1004D0000068400E0028FAD00C48406840F0020046
:1004E0000A49486005E009484068C0F3870505F0FF
:1004F0000305022DF7D130BD80FFFF1F08ED00E09E
:100500000000FA0500E100E000E400E00010024015
:1005100008000140000401400000FFF8FFFFF6FE64
:1005200000700040002002405248806940F0010005
:10053000504988610846806940F008008861084693
:10054000806940F0400088614B48406840F000708E
:10055000494948604948006820F4704047490860AC
:100560000846006840F44050086044480C30006879
:1005700040F0080041490C31086041480068002003
:100580003F4908600846006840F0333008603C4846
:10059000083000683A4908310860704700F00101EE
:1005A000384A1160C0F34001374AC2F8A411C0F3C1
:1005B0008001344A08321160C0F3C001121D11607D
:1005C000C0F30011121D1160C0F34011121D116023
:1005D000C0F38011121D1160C0F3C0112A4AC2F885
:1005E000BC11704730B503460C46184603EBD0717A
:1005F0004910A3EB4101254A1160194603EBD17262
:10060000501000EBD0725210A0EB4202204DC5F802
:1006100084211846D91703EB917189101B4A0832BF
:1006200011601C49085DFFF7B9FF30BD30B50346C6
:100630000C46184603EBD0714910A3EB4101134A55
:100640001160194603EBD172501000EBD0725210BA
:10065000A0EB42020E4DC5F884211846D91703EBD2
:1006600091718910094A083211600B49085DFFF742
:1006700095FF30BD0010024000000140000C014019
:1006800004180140A001234200002342808121423E
:1006900000802142040000200E00002025488069CF
:1006A00040F0100023498861234800686FF30B0075
:1006B000214908600846006840F6880108431E4941
:1006C0000860704710B51D48007808B31C480068E2
:1006D00038B11B48001F006818B119480838006875
:1006E000B0B90A20FFF776FD0020144908701448BD
:1006F000006808B9012010BD1148001F006808B942
:100700000220F8E70E480838006888B90320F2E7AD
:100710000B48006801280BD10948001F0068012818
:1007200006D1074808380068012801D1034908703C
:100730000020E0E7001002400010014018000020F7
:1007400008012242064C074D06E0E06840F0010334
:1007500094E8070098471034AC42F6D3FFF7CAFC80
:1007600088070008A807000802E008C8121F08C18F
:10077000002AFAD170477047002001E001C1121F22
:10078000002AFBD170470000A807000800000020E5
:100790001C00000068070008C40700081C000020B7
:1007A0000402000078070008000000003F065B4FCD
:1007B000666D7D077F6FBF86DBCFE6EDFD87FFEFC0
:0407C0000100000034
:04000005080000ED02
:00000001FF
