:020000040800F2
:10000000800200208D010008910100089301000882
:100010009501000897010008990100080000000000
:100020000000000000000000000000009B0100082C
:100030009D010008000000009F010008A1010008C8
:10004000A3010008A3010008A3010008A301000800
:10005000A3010008A3010008A3010008A3010008F0
:10006000A3010008A3010008A3010008A3010008E0
:10007000A3010008A3010008A3010008A3010008D0
:10008000A3010008A3010008A3010008A3010008C0
:10009000A3010008A3010008A3010008A3010008B0
:1000A000A3010008A3010008A3010008A3010008A0
:1000B000A3010008A3010008A3010008A301000890
:1000C000A3010008A3010008A3010008A301000880
:1000D000A3010008A3010008A3010008A301000870
:1000E000A3010008A3010008A301000800F002F822
:1000F00000F03AF80AA090E8000C82448344AAF188
:100100000107DA4501D100F02FF8AFF2090EBAE885
:100110000F0013F0010F18BFFB1A43F0010318473B
:10012000BC0C0000DC0C0000103A24BF78C878C179
:10013000FAD8520724BF30C830C144BF04680C60ED
:10014000704700000023002400250026103A28BF35
:1001500078C1FBD8520728BF30C148BF0B60704739
:100160001FB51FBD10B510BD00F061FB1146FFF7B4
:10017000F7FF00F025F800F07FFB03B4FFF7F2FF74
:1001800003BC00F021FA000030BF0000084800471F
:10019000FEE7FEE7FEE7FEE7FEE7FEE7FEE7FEE737
:1001A000FEE7FEE703480449024A044B704700009B
:1001B000ED00000880000020800200208000002068
:1001C000062000F0A6F9482000F038F800F06EFA9A
:1001D0001748006820F47F40154908600120154940
:1001E00008601549087021E0114800681249097833
:1001F00040EA01200E4908604FF4967000F03AF88A
:100200000D4800784006000E0B490870084600783B
:1002100060B90748006820F47F40054908604FF442
:10022000967000F027F8012003490870DCE7000011
:100230000C1801408C812142000000204FF0E02189
:10024000096921F004014FF0E0221161C21700EBAF
:100250005272C2F3C702234B1A701946097801EB98
:100260004102C2EBC1114FF6FF7202EAC1011E4A00
:100270001180704701461C4A12884A434FF0E02320
:100280005A6100229A6101221A6100BF4FF0E022F8
:10029000106900F001021AB100F48032002AF5D092
:1002A00000224FF0E0231A619A61704701460D4A1F
:1002B00012784A434FF0E0235A6100229A610122EA
:1002C0001A6100BF4FF0E022106900F001021AB17C
:1002D00000F48032002AF5D000224FF0E0231A61AA
:1002E0009A6170470200002004000020AA4A0A40D8
:1002F0000243AA4B1A6070470146072323EA010212
:100300001202A64B1B1D18684FF6FF031840A44BA2
:1003100018431043A14B1B1D186070472DE9F0478F
:100320008046894614461D462046E11704EB91712C
:10033000C1F3870AE11704EB91718910A4EB8101E5
:10034000CFB2042000EBC700C7B22846FFF7D4FFA6
:10035000C5F1040008FA00F60F20284100EA090060
:10036000064306F00F06202C09DA8E4801680120AA
:10037000A04001434FF0E020C0F800110BE0894895
:10038000001D0068A4F1200101228A4010434FF0B3
:10039000E021C1F80401844850F82A0006FA07F168
:1003A0000843814941F82A00BDE8F08770B504464A
:1003B0000B46CE1701EB9676C6F38700CE1701EBFE
:1003C0009676B610A1EB8606B606350E774B9B697E
:1003D00043F00103754EB3614FEAB63353F8203052
:1003E0000F26AE40B343724E46F82030334653F8E2
:1003F000203004FA05F61E436D4B43F820606D4B28
:100400001B6801268E4033436A4E336002F00103BD
:1004100043B1684B0C331B6801268E403343654E55
:100420000C36336002F0020343B1624B08331E689E
:1004300001238B401E435F4B08331E6070BD00B527
:1004400000205A490861C860142048610020886172
:10045000C8610846006840F001000860084640682E
:1004600055490840514948600846006853490840CA
:100470004E4908600846006820F48020086008465D
:10048000406820F4FE0048600020886000214FF0A2
:100490000060FFF72BFF00BD10B540480830006832
:1004A00040F004003D49083108604048C06940F010
:1004B00080503E49C8614248406840F480704049DD
:1004C00048600846006840F004000860084600687C
:1004D00040F002000860FFF757FE10BD3048001DD5
:1004E0002E49091D08607047014649062F4A926946
:1004F00042F001022D4B9A612D4A083A526822F0CF
:10050000E0622B4B083B5A601A4652680A435A6015
:10051000704730B504460025FFF791FF2348006877
:1005200040F480302149086000BF20480068400C3A
:100530000028FAD04FF480601C494860A01EC4B265
:100540000846406840EA844048600846406840F4F5
:10055000803048601B48006840F03200194908604C
:100560001248006840F080701049086000BF0F48D2
:100570000068400E0028FAD00C48406840F00200A5
:100580000A49486005E009484068C0F3870505F05E
:100590000305022DF7D130BD80FFFF1F08ED00E0FD
:1005A0000000FA0500E100E000E400E00010024075
:1005B00008000140000401400000FFF8FFFFF6FEC4
:1005C0000070004000200240014600BF704700BF9D
:1005D000324A128802F04002002AF9D0C2B22F4BF0
:1005E0001B1D1A8070472DE9F05F05460E4630014D
:1005F00000F094FA81462A4905FB01F000F08EFADA
:100600008246494600F0A8F90746384600F066FAE7
:1006100084B2204600F082FA8346394600F05EFB41
:1006200082464FF0834100F08DFA814600F056FA81
:1006300080464FF6FF7000EA041404EB080084B211
:100640001848806940F004001649886108468069AE
:1006500040F4804088611448006820F47F601249AB
:1006600008600846006840F40B6008600D48C068E8
:1006700040F480400B49C8600846C06820F48040C0
:10068000C860064808300480001D008842F20C0152
:10069000084302490C310880BDE8F09F0038014052
:1006A00040420F0000100240040801405348806996
:1006B00040F00100514988610846806940F0080017
:1006C00088610846806940F0400088614C48406875
:1006D00040F000704A4948604A48006820F4704081
:1006E000484908600846006840F4405008604548A2
:1006F0000C30006840F0080042490C310860424864
:1007000000680020404908600846006840F0333027
:1007100008603D480830006840F47F403A4908319D
:100720000860704700F00101384A1160C0F34001D1
:10073000374AC2F8A411C0F38001344A083211606C
:10074000C0F3C001121D1160C0F30011121D116031
:10075000C0F34011121D1160C0F38011121D116011
:10076000C0F3C0112A4AC2F8BC11704730B5034625
:100770000C46184603EBD0714910A3EB4101254A02
:100780001160194603EBD172501000EBD072521079
:10079000A0EB4202204DC5F884211846D91703EB7F
:1007A000917189101B4A083211601C49085DFFF7DE
:1007B000B9FF30BD30B503460C46184603EBD07187
:1007C0004910A3EB4101134A1160194603EBD172A2
:1007D000501000EBD0725210A0EB42020E4DC5F843
:1007E00084211846D91703EB91718910094A083200
:1007F00011600B49085DFFF795FF30BD0010024006
:1008000000000140000C014004180140A0012342F7
:100810000000234280812142008021420600002006
:10082000100000207047704770477047704775464A
:1008300000F02CF8AE4605006946534620F007004C
:10084000854618B020B5FFF7ADFCBDE820404FF05D
:1008500000064FF000074FF000084FF0000B21F0AA
:100860000701AC46ACE8C009ACE8C009ACE8C00977
:10087000ACE8C0098D46704710B50446AFF3008060
:100880002046BDE81040FFF778BC000000487047E4
:100890001C00002090EA010F48BF81F0004100F1E8
:1008A0002E82421A3CBF801A89184FEAD0524FF06C
:1008B0007F4C1CEA410FA2EBD15318BF9CEA026F98
:1008C00000F03B804FF0004C4CEA00204CEA012144
:1008D00021FA03FC10EB0C0C1ED202F1FF325FEA8E
:1008E0001C2040EBC25038BF70471CF07F0F4FEA0E
:1008F000400C18BFBCF17F4F38BF7047C3F12003D5
:10090000994008BF20F00100BCF17F4F38BF70470D
:10091000A0F1C04000F0DDB94FEA3C00000A40EB16
:10092000C25028BF1CF0FF0F4FEA400CE6D018BFA2
:10093000BCF17F4F38BF7047EAE79CEA026F05D0F1
:1009400010EA5C0F08BF00F00040704710B500F0DF
:100950007AF900BF64FBBE3E4FF47F0C1CEAD01254
:100960001EBF1CEAD11392EA0C0F93EA0C0F00F0A1
:10097000858090EA010F48BF42F4807240F4000C79
:1009800041F400002CF07F4120F07F4000B581420F
:10099000A2EB03020FF2081CACEB504EC0F10000BA
:1009A0009EF800E04FEA4E0E00FB0EFC38BF4900F7
:1009B0004FEA2C1C02F5FA020CFB0EF34FEACE1E96
:1009C0004FEA112C4FEAC1210EEB635E42EB22424B
:1009D0000EFB0CFC4FEA1C5300FB03114FEA112CD9
:1009E0004FEA01310EFB0CFC4FEADC4C00FB0C1112
:1009F000C14228BF09184CEB03335DF804EB10EB40
:100A0000410143EBC250B2F57C0F38BF704729D586
:100A100012F0F00F1CBF00F1C04000F00040704722
:100A2000008182838485868788898B8C8D8E8F91C7
:100A30009293959697999A9C9D9FA0A2A3A5A7A8EB
:100A4000AAACAEB0B2B3B5B7B9BCBEC0C2C5C7C917
:100A5000CCCED1D4D7D9DCDFE2E6E9ECF0F3F7FA7B
:100A6000FE0000004FEA400C0CF1807CBCF17E4F90
:100A700028BF7047B0F1C04000F02BB990EA010FD9
:100A80000CEAD11348BF42F48072624538BF634517
:100A900007D213F47F0F16D080EA010000F0004067
:100AA000704710B500F0CFF8097EFC3E00F005B8A5
:100AB00080EA010000F00040704780EA010000F089
:100AC000004000F006B912F47F0F04BF02487047DF
:100AD00080EA010000F0FDB80000C07FC10DD1F137
:100AE0009E0206DB4FEA002343F0004323FA02F0A4
:100AF0007047004207D54FEA4001B1F1FE4F02D2E4
:100B00004FF00000704710B500F09DF84992248026
:100B1000002070476FEA200070470000B0FA80F3B1
:100B200010FA03F2C3F19D030AD0D90501EB12209C
:100B3000530638BF704700F1010008BF20F00100E4
:100B4000704700004FF47F0C1CEAD0121EBF1CEA55
:100B5000D11392EA0C0F93EA0C0F00F0478090EA51
:100B6000010F48BF42F480724FF0004C4CEA002065
:100B70004CEA012102EB0302A0FB0113A2F50002E3
:100B8000002918BF43F001035B0028BF4FEA33037D
:100B900042EB22425FEA132C4CEBC2502EBFBCEB5F
:100BA000436FB2F57C0F70474FEA036CBCF1004F06
:100BB00008BF20F00100B2F57C0F38BF70470BD59D
:100BC00082F0FF0212F5803FC8BF704700F1C040BD
:100BD000D8BF00F00040704700F5000C5FEA4C0CF5
:100BE00048BF7047B0F1C04000F073B890EA010F01
:100BF0000CEAD11348BF42F48072624538BF6345A6
:100C000004D280EA010000F00040704710B500F007
:100C10001AF800BF8900013E00F007B800F009B8DB
:100C20005FEA410C5FEA1C6C08D080EA010000F02A
:100C300050B85FEA400C5FEA1C6CF6D14FF0004000
:100C4000A0F5800070470EF1020E2EF0030E5EF844
:100C5000044B244204D44FEA4102B2F17F4F11D831
:100C60004FEA4003B3F17F4F0CD80ED14FEAD07C4E
:100C7000B2F17F4F0CEB4C0C0CF1020C08BF4CEBAB
:100C8000D17C04E04FF0080C01E04FEAD17C0CEB82
:100C90004C0324FA03F404F00704B4F1040C06D264
:100CA0000EEB840CBDE810404CF0010C6047DFE80F
:100CB0000CF0070802024FF00040A0F5800010BDC4
:100CC0000846420018BFD2F1807288BF00F0004091
:100CD00010BDFF2141EAD050C005704780F00040B0
:100CE00090EA010F7FF5DDAD81F0004100F007B81B
:100CF00090EA010F48BF81F000413FF5D2AD421AA2
:100D000004D882F00042A0EB020011444FEAD05216
:100D10004FF07F4C1CEA410FA2EBD15318BF9CEA65
:100D2000026F4AD04FF0004C4CEA00204CEA0121FF
:100D300021FA03FCB0EB0C0C0FD412F0FE0F36D0EE
:100D40005FEA4C001DD5001240EBC25038BF70471F
:100D50001CF03F0F18BF70470BE0A2F101025FEAE1
:100D60001C2040EBC25038BF70471CF07F0F18BFEB
:100D70007047C3F12003994014BF401E20F00100CA
:100D8000704780084FEA122308BF7047B0FA80FC12
:100D9000A2EB0C02CCF1280C60FA0CF093EA122FB3
:100DA00004BF00EBC25070474FEAC3707047130A8C
:100DB0005FEADC1008BF7047F6E79CEA026F04D0D8
:100DC00010EA5C0F08BF0020704710B5FFF73BFF2B
:100DD00040DFF63E81F0004070470000FC0D000847
:100DE000000000201C00000028010008180E000868
:100DF0001C00002064020000440100080000000004
:100E000000003F065B4F666D7D077F6FBF86DBCFBF
:080E1000E6EDFD87FFEF000095
:04000005080000ED02
:00000001FF
